{
  "contractName": "TokenPriceContest",
  "abi": [
    {
      "constant": true,
      "inputs": [],
      "name": "contestPeriod",
      "outputs": [
        {
          "name": "",
          "type": "uint256"
        }
      ],
      "payable": false,
      "stateMutability": "view",
      "type": "function"
    },
    {
      "constant": true,
      "inputs": [],
      "name": "tokenLimit",
      "outputs": [
        {
          "name": "",
          "type": "uint8"
        }
      ],
      "payable": false,
      "stateMutability": "view",
      "type": "function"
    },
    {
      "constant": true,
      "inputs": [],
      "name": "resultFee",
      "outputs": [
        {
          "name": "",
          "type": "uint256"
        }
      ],
      "payable": false,
      "stateMutability": "view",
      "type": "function"
    },
    {
      "constant": true,
      "inputs": [],
      "name": "firstDay",
      "outputs": [
        {
          "name": "",
          "type": "uint256"
        }
      ],
      "payable": false,
      "stateMutability": "view",
      "type": "function"
    },
    {
      "constant": true,
      "inputs": [],
      "name": "requestFee",
      "outputs": [
        {
          "name": "",
          "type": "uint256"
        }
      ],
      "payable": false,
      "stateMutability": "view",
      "type": "function"
    },
    {
      "inputs": [
        {
          "name": "_firstDay",
          "type": "uint256"
        },
        {
          "name": "_contestPeriod",
          "type": "uint256"
        },
        {
          "name": "_tokenLimit",
          "type": "uint8"
        },
        {
          "name": "_wbi",
          "type": "address"
        },
        {
          "name": "_requestFee",
          "type": "uint256"
        },
        {
          "name": "_resultFee",
          "type": "uint256"
        }
      ],
      "payable": false,
      "stateMutability": "nonpayable",
      "type": "constructor"
    },
    {
      "anonymous": false,
      "inputs": [
        {
          "indexed": false,
          "name": "day",
          "type": "uint8"
        },
        {
          "indexed": false,
          "name": "tokenId",
          "type": "uint8"
        },
        {
          "indexed": false,
          "name": "sender",
          "type": "address"
        },
        {
          "indexed": false,
          "name": "value",
          "type": "uint256"
        }
      ],
      "name": "BetPlaced",
      "type": "event"
    },
    {
      "anonymous": false,
      "inputs": [
        {
          "indexed": false,
          "name": "day",
          "type": "uint8"
        },
        {
          "indexed": false,
          "name": "requestId",
          "type": "uint256"
        },
        {
          "indexed": false,
          "name": "sender",
          "type": "address"
        }
      ],
      "name": "ResolveTriggered",
      "type": "event"
    },
    {
      "anonymous": false,
      "inputs": [
        {
          "indexed": false,
          "name": "day",
          "type": "uint8"
        },
        {
          "indexed": false,
          "name": "requestId",
          "type": "uint256"
        },
        {
          "indexed": false,
          "name": "result",
          "type": "bool"
        },
        {
          "indexed": false,
          "name": "sender",
          "type": "address"
        }
      ],
      "name": "ResultRead",
      "type": "event"
    },
    {
      "constant": true,
      "inputs": [],
      "name": "getTimestamp",
      "outputs": [
        {
          "name": "",
          "type": "uint256"
        }
      ],
      "payable": false,
      "stateMutability": "view",
      "type": "function"
    },
    {
      "constant": false,
      "inputs": [
        {
          "name": "_tokenId",
          "type": "uint8"
        }
      ],
      "name": "placeBet",
      "outputs": [],
      "payable": true,
      "stateMutability": "payable",
      "type": "function"
    },
    {
      "constant": false,
      "inputs": [
        {
          "name": "_day",
          "type": "uint8"
        }
      ],
      "name": "resolve",
      "outputs": [],
      "payable": true,
      "stateMutability": "payable",
      "type": "function"
    },
    {
      "constant": false,
      "inputs": [
        {
          "name": "_day",
          "type": "uint8"
        }
      ],
      "name": "payout",
      "outputs": [],
      "payable": true,
      "stateMutability": "payable",
      "type": "function"
    },
    {
      "constant": false,
      "inputs": [
        {
          "name": "_day",
          "type": "uint8"
        }
      ],
      "name": "getDayState",
      "outputs": [
        {
          "name": "",
          "type": "uint8"
        }
      ],
      "payable": false,
      "stateMutability": "nonpayable",
      "type": "function"
    },
    {
      "constant": true,
      "inputs": [
        {
          "name": "_day",
          "type": "uint8"
        }
      ],
      "name": "isResultReady",
      "outputs": [
        {
          "name": "",
          "type": "bool"
        }
      ],
      "payable": false,
      "stateMutability": "view",
      "type": "function"
    },
    {
      "constant": true,
      "inputs": [
        {
          "name": "_day",
          "type": "uint8"
        },
        {
          "name": "_tokenId",
          "type": "uint8"
        }
      ],
      "name": "getTotalAmountTokenDay",
      "outputs": [
        {
          "name": "",
          "type": "uint256"
        }
      ],
      "payable": false,
      "stateMutability": "view",
      "type": "function"
    },
    {
      "constant": true,
      "inputs": [
        {
          "name": "_day",
          "type": "uint8"
        }
      ],
      "name": "getMyBetsDay",
      "outputs": [
        {
          "name": "",
          "type": "uint256[]"
        }
      ],
      "payable": false,
      "stateMutability": "view",
      "type": "function"
    },
    {
      "constant": true,
      "inputs": [
        {
          "name": "_day",
          "type": "uint8"
        }
      ],
      "name": "getDayInfo",
      "outputs": [
        {
          "components": [
            {
              "name": "grandPrize",
              "type": "uint256"
            },
            {
              "name": "ranking",
              "type": "uint8[]"
            },
            {
              "name": "result",
              "type": "int128[]"
            },
            {
              "name": "witnetRequestId",
              "type": "uint256"
            },
            {
              "name": "witnetReadResult",
              "type": "bool"
            }
          ],
          "name": "",
          "type": "tuple"
        }
      ],
      "payable": false,
      "stateMutability": "view",
      "type": "function"
    },
    {
      "constant": false,
      "inputs": [],
      "name": "getCurrentDay",
      "outputs": [
        {
          "name": "",
          "type": "uint8"
        }
      ],
      "payable": false,
      "stateMutability": "nonpayable",
      "type": "function"
    }
  ],
  "bytecode": "0x60806040523480156200001157600080fd5b5060405160c08062003743833981018060405262000033919081019062000177565b82806000806101000a81548173ffffffffffffffffffffffffffffffffffffffff021916908373ffffffffffffffffffffffffffffffffffffffff16021790555050856001819055508460048190555083600560006101000a81548160ff021916908360ff1602179055508160028190555080600381905550604051620000ba9062000124565b604051809103906000f080158015620000d7573d6000803e3d6000fd5b50600560016101000a81548173ffffffffffffffffffffffffffffffffffffffff021916908373ffffffffffffffffffffffffffffffffffffffff160217905550505050505050620002a6565b61059b80620031a883390190565b600081519050620001438162000258565b92915050565b6000815190506200015a8162000272565b92915050565b60008151905062000171816200028c565b92915050565b60008060008060008060c087890312156200019157600080fd5b6000620001a189828a0162000149565b9650506020620001b489828a0162000149565b9550506040620001c789828a0162000160565b9450506060620001da89828a0162000132565b9350506080620001ed89828a0162000149565b92505060a06200020089828a0162000149565b9150509295509295509295565b60006200021a8262000221565b9050919050565b600073ffffffffffffffffffffffffffffffffffffffff82169050919050565b6000819050919050565b600060ff82169050919050565b62000263816200020d565b81146200026f57600080fd5b50565b6200027d8162000241565b81146200028957600080fd5b50565b62000297816200024b565b8114620002a357600080fd5b50565b612ef280620002b66000396000f3fe6080604052600436106100e85760003560e01c806356c7627e1161008a578063a0270dbc11610059578063a0270dbc146102f0578063b00bee711461030c578063cf1405fe14610349578063eb2e578b14610374576100e8565b806356c7627e1461022057806362bd3b7e1461024b57806365e8fa91146102765780638ca9f69e146102b3576100e8565b8063188ec356116100c6578063188ec356146101715780633e6968b61461019c57806343046844146101c7578063481a117a146101e3576100e8565b8063071a2b52146100ed5780630e6b975214610118578063153f2b4b14610155575b600080fd5b3480156100f957600080fd5b5061010261039f565b60405161010f9190612a6c565b60405180910390f35b34801561012457600080fd5b5061013f600480360361013a91908101906121c9565b6103a5565b60405161014c9190612a6c565b60405180910390f35b61016f600480360361016a91908101906121a0565b6103d7565b005b34801561017d57600080fd5b50610186610cf4565b6040516101939190612a6c565b60405180910390f35b3480156101a857600080fd5b506101b1610cfc565b6040516101be9190612a87565b60405180910390f35b6101e160048036036101dc91908101906121a0565b610d25565b005b3480156101ef57600080fd5b5061020a600480360361020591908101906121a0565b610f7a565b604051610217919061289e565b60405180910390f35b34801561022c57600080fd5b50610235611086565b6040516102429190612a87565b60405180910390f35b34801561025757600080fd5b50610260611099565b60405161026d9190612a6c565b60405180910390f35b34801561028257600080fd5b5061029d600480360361029891908101906121a0565b61109f565b6040516102aa91906128c0565b60405180910390f35b3480156102bf57600080fd5b506102da60048036036102d591908101906121a0565b611183565b6040516102e79190612a28565b60405180910390f35b61030a600480360361030591908101906121a0565b6112e1565b005b34801561031857600080fd5b50610333600480360361032e91908101906121a0565b611420565b604051610340919061292d565b60405180910390f35b34801561035557600080fd5b5061035e61152b565b60405161036b9190612a6c565b60405180910390f35b34801561038057600080fd5b50610389611531565b6040516103969190612a6c565b60405180910390f35b60045481565b6000600660006103b58585611537565b61ffff1661ffff16815260200190815260200160002060000154905092915050565b600360058111156103e457fe5b6103ed82611420565b60058111156103f857fe5b148061042257506004600581111561040c57fe5b61041582611420565b600581111561042057fe5b145b610461576040517f08c379a0000000000000000000000000000000000000000000000000000000008152600401610458906129e8565b60405180910390fd5b60001515600760008360ff1660ff16815260200190815260200160002060040160009054906101000a900460ff16151514156107705761049f611984565b6104c4600760008460ff1660ff16815260200190815260200160002060030154611552565b90506001600760008460ff1660ff16815260200190815260200160002060040160006101000a81548160ff0219169083151502179055507f099b4d545a589e9ad30e00a5a1bc40d44d21c8ca386c2502a8c2715a1b2d4bdd82600760008560ff1660ff168152602001908152602001600020600301548373__Witnet________________________________636646c11990916040518263ffffffff1660e01b81526004016105739190612a4a565b60206040518083038186803b15801561058b57600080fd5b505af415801561059f573d6000803e3d6000fd5b505050506040513d601f19601f820116820180604052506105c39190810190611fbd565b336040516105d49493929190612ad9565b60405180910390a18073__Witnet________________________________636646c11990916040518263ffffffff1660e01b81526004016106159190612a4a565b60206040518083038186803b15801561062d57600080fd5b505af4158015610641573d6000803e3d6000fd5b505050506040513d601f19601f820116820180604052506106659190810190611fbd565b1561076e5760608173__Witnet________________________________63fc853c3790916040518263ffffffff1660e01b81526004016106a59190612a4a565b60006040518083038186803b1580156106bd57600080fd5b505af41580156106d1573d6000803e3d6000fd5b505050506040513d6000823e3d601f19601f820116820180604052506106fa9190810190611f7c565b905060606107078261169b565b905081600760008660ff1660ff16815260200190815260200160002060020190805190602001906107399291906119a7565b5080600760008660ff1660ff168152602001908152602001600020600101908051906020019061076a929190611a7e565b5050505b505b6000600760008360ff1660ff1681526020019081526020016000206002018054905014156109da5760006107a5826000611537565b905060008090505b600560009054906101000a900460ff1660ff168161ffff1610156109d357600015156006600084840161ffff1661ffff16815260200190815260200160002060020160003373ffffffffffffffffffffffffffffffffffffffff1673ffffffffffffffffffffffffffffffffffffffff16815260200190815260200160002060009054906101000a900460ff1615151480156108a6575060006006600084840161ffff1661ffff16815260200190815260200160002060010160003373ffffffffffffffffffffffffffffffffffffffff1673ffffffffffffffffffffffffffffffffffffffff16815260200190815260200160002054115b156109c65760016006600084840161ffff1661ffff16815260200190815260200160002060020160003373ffffffffffffffffffffffffffffffffffffffff1673ffffffffffffffffffffffffffffffffffffffff16815260200190815260200160002060006101000a81548160ff0219169083151502179055503373ffffffffffffffffffffffffffffffffffffffff166108fc6006600085850161ffff1661ffff16815260200190815260200160002060010160003373ffffffffffffffffffffffffffffffffffffffff1673ffffffffffffffffffffffffffffffffffffffff168152602001908152602001600020549081150290604051600060405180830381858888f193505050501580156109c4573d6000803e3d6000fd5b505b80806001019150506107ad565b5050610cf1565b6000610a2d82600760008560ff1660ff168152602001908152602001600020600101600081548110610a0857fe5b90600052602060002090602091828204019190069054906101000a900460ff16611537565b905060001515600660008361ffff1661ffff16815260200190815260200160002060020160003373ffffffffffffffffffffffffffffffffffffffff1673ffffffffffffffffffffffffffffffffffffffff16815260200190815260200160002060009054906101000a900460ff16151514610ade576040517f08c379a0000000000000000000000000000000000000000000000000000000008152600401610ad590612988565b60405180910390fd5b6000600660008361ffff1661ffff16815260200190815260200160002060010160003373ffffffffffffffffffffffffffffffffffffffff1673ffffffffffffffffffffffffffffffffffffffff1681526020019081526020016000205411610b7c576040517f08c379a0000000000000000000000000000000000000000000000000000000008152600401610b73906129c8565b60405180910390fd5b6000600760008460ff1660ff1681526020019081526020016000206000015490506000600660008461ffff1661ffff1681526020019081526020016000206000015490506000818381610bcb57fe5b049050600081600660008761ffff1661ffff16815260200190815260200160002060010160003373ffffffffffffffffffffffffffffffffffffffff1673ffffffffffffffffffffffffffffffffffffffff168152602001908152602001600020540290506001600660008761ffff1661ffff16815260200190815260200160002060020160003373ffffffffffffffffffffffffffffffffffffffff1673ffffffffffffffffffffffffffffffffffffffff16815260200190815260200160002060006101000a81548160ff0219169083151502179055503373ffffffffffffffffffffffffffffffffffffffff166108fc829081150290604051600060405180830381858888f19350505050158015610cea573d6000803e3d6000fd5b5050505050505b50565b600042905090565b600080610d07610cf4565b90506000600454600154830381610d1a57fe5b049050809250505090565b60003411610d68576040517f08c379a0000000000000000000000000000000000000000000000000000000008152600401610d5f906129a8565b60405180910390fd5b600560009054906101000a900460ff1660ff168160ff1610610dbf576040517f08c379a0000000000000000000000000000000000000000000000000000000008152600401610db690612968565b60405180910390fd5b6000610dc9610cfc565b90506000610dd78284611537565b905034600660008361ffff1661ffff1681526020019081526020016000206000015401600660008361ffff1661ffff1681526020019081526020016000206000018190555034600660008361ffff1661ffff16815260200190815260200160002060010160003373ffffffffffffffffffffffffffffffffffffffff1673ffffffffffffffffffffffffffffffffffffffff168152602001908152602001600020600082825401925050819055506000600660008361ffff1661ffff16815260200190815260200160002060020160003373ffffffffffffffffffffffffffffffffffffffff1673ffffffffffffffffffffffffffffffffffffffff16815260200190815260200160002060006101000a81548160ff02191690831515021790555034600760008460ff1660ff1681526020019081526020016000206000015401600760008460ff1660ff168152602001908152602001600020600001819055507f3c442d4091d4b2a2178f7e7f6dc2c28cc9a8487d95d2238f8430aa386c538a2482843334604051610f6d9493929190612b1e565b60405180910390a1505050565b606080600560009054906101000a900460ff1660ff16604051908082528060200260200182016040528015610fbe5781602001602082028038833980820191505090505b5090506000610fce846000611537565b905060008090505b600560009054906101000a900460ff1660ff168161ffff16101561107b576006600083830161ffff1661ffff16815260200190815260200160002060010160003373ffffffffffffffffffffffffffffffffffffffff1673ffffffffffffffffffffffffffffffffffffffff16815260200190815260200160002054838261ffff168151811061106257fe5b6020026020010181815250508080600101915050610fd6565b508192505050919050565b600560009054906101000a900460ff1681565b60035481565b600060606000809054906101000a900473ffffffffffffffffffffffffffffffffffffffff1673ffffffffffffffffffffffffffffffffffffffff166381d12c58600760008660ff1660ff168152602001908152602001600020600301546040518263ffffffff1660e01b81526004016111199190612a6c565b60006040518083038186803b15801561113157600080fd5b505afa158015611145573d6000803e3d6000fd5b505050506040513d6000823e3d601f19601f8201168201806040525061116e9190810190612068565b50505093505050506000815111915050919050565b61118b611b25565b600760008360ff1660ff1681526020019081526020016000206040518060a0016040529081600082015481526020016001820180548060200260200160405190810160405280929190818152602001828054801561122e57602002820191906000526020600020906000905b82829054906101000a900460ff1660ff16815260200190600101906020826000010492830192600103820291508084116111f75790505b50505050508152602001600282018054806020026020016040519081016040528092919081815260200182805480156112ac57602002820191906000526020600020906000905b82829054906101000a9004600f0b600f0b81526020019060100190602082600f010492830192600103820291508084116112755790505b50505050508152602001600382015481526020016004820160009054906101000a900460ff1615151515815250509050919050565b6003546002540134101561132a576040517f08c379a000000000000000000000000000000000000000000000000000000000815260040161132190612a08565b60405180910390fd5b6002600581111561133757fe5b61134082611420565b600581111561134b57fe5b1461138b576040517f08c379a000000000000000000000000000000000000000000000000000000000815260040161138290612948565b60405180910390fd5b60006113be600560019054906101000a900473ffffffffffffffffffffffffffffffffffffffff16600254600354611846565b905080600760008460ff1660ff168152602001908152602001600020600301819055507fc4125a01dbe9543a65397da7cc43aae2b7dcc4b579ed11fbce57c3b092cb107d82823360405161141493929190612aa2565b60405180910390a15050565b60008061142b610cf4565b9050600060045460015483038161143e57fe5b049050808460ff16141561145757600092505050611526565b808460ff16111561146d57600592505050611526565b6000600760008660ff1660ff16815260200190815260200160002060000154141561149d57600492505050611526565b600181038460ff1614156114b657600192505050611526565b6000600760008660ff1660ff1681526020019081526020016000206003015414156114e657600292505050611526565b600760008560ff1660ff16815260200190815260200160002060040160009054906101000a900460ff1661151f57600392505050611526565b6004925050505b919050565b60015481565b60025481565b60008160ff1660088460ff1661ffff16901b17905092915050565b61155a611984565b73__Witnet________________________________63e99e47f36000809054906101000a900473ffffffffffffffffffffffffffffffffffffffff1673ffffffffffffffffffffffffffffffffffffffff166345b3d782856040518263ffffffff1660e01b81526004016115ce9190612a6c565b60006040518083038186803b1580156115e657600080fd5b505afa1580156115fa573d6000803e3d6000fd5b505050506040513d6000823e3d601f19601f820116820180604052506116239190810190612027565b6040518263ffffffff1660e01b815260040161163f91906128db565b60006040518083038186803b15801561165757600080fd5b505af415801561166b573d6000803e3d6000fd5b505050506040513d6000823e3d601f19601f820116820180604052506116949190810190612136565b9050919050565b60608082516040519080825280602002602001820160405280156116ce5781602001602082028038833980820191505090505b509050606083516040519080825280602002602001820160405280156117035781602001602082028038833980820191505090505b50905060008090505b84518160ff1610156117e157600080905060008090505b8260ff168160ff1610156117ae57868360ff168151811061174057fe5b6020026020010151600f0b878260ff168151811061175a57fe5b6020026020010151600f0b13156117785781806001019250506117a1565b848160ff168151811061178757fe5b60200260200101805180919060010160ff1660ff16815250505b8080600101915050611723565b5080848360ff16815181106117bf57fe5b602002602001019060ff16908160ff168152505050808060010191505061170c565b5060008090505b82518160ff16101561183b578082848360ff168151811061180557fe5b602002602001015160ff168151811061181a57fe5b602002602001019060ff16908160ff168152505080806001019150506117e8565b508092505050919050565b60008060009054906101000a900473ffffffffffffffffffffffffffffffffffffffff1673ffffffffffffffffffffffffffffffffffffffff1663ec32e3db8385018673ffffffffffffffffffffffffffffffffffffffff1663f09400026040518163ffffffff1660e01b815260040160006040518083038186803b1580156118ce57600080fd5b505afa1580156118e2573d6000803e3d6000fd5b505050506040513d6000823e3d601f19601f8201168201806040525061190b9190810190611fe6565b856040518463ffffffff1660e01b81526004016119299291906128fd565b6020604051808303818588803b15801561194257600080fd5b505af1158015611956573d6000803e3d6000fd5b50505050506040513d601f19601f8201168201806040525061197b9190810190612177565b90509392505050565b6040518061010001604052806000151581526020016119a1611b56565b81525090565b82805482825590600052602060002090600101600290048101928215611a6d5791602002820160005b83821115611a2f57835183826101000a8154816fffffffffffffffffffffffffffffffff0219169083600f0b6fffffffffffffffffffffffffffffffff1602179055509260200192601001602081600f010492830192600103026119d0565b8015611a6b5782816101000a8154906fffffffffffffffffffffffffffffffff0219169055601001602081600f01049283019260010302611a2f565b505b509050611a7a9190611baf565b5090565b82805482825590600052602060002090601f01602090048101928215611b145791602002820160005b83821115611ae557835183826101000a81548160ff021916908360ff1602179055509260200192600101602081600001049283019260010302611aa7565b8015611b125782816101000a81549060ff0219169055600101602081600001049283019260010302611ae5565b505b509050611b219190611bee565b5090565b6040518060a00160405280600081526020016060815260200160608152602001600081526020016000151581525090565b6040518060e00160405280611b69611c1e565b8152602001600060ff168152602001600060ff168152602001600060ff168152602001600067ffffffffffffffff168152602001600067ffffffffffffffff1681525090565b611beb91905b80821115611be757600081816101000a8154906fffffffffffffffffffffffffffffffff021916905550600101611bb5565b5090565b90565b611c1b91905b80821115611c1757600081816101000a81549060ff021916905550600101611bf4565b5090565b90565b604051806040016040528060608152602001600067ffffffffffffffff1681525090565b600081519050611c5181612e2e565b92915050565b600082601f830112611c6857600080fd5b8151611c7b611c7682612b90565b612b63565b91508181835260208401935060208101905083856020840282011115611ca057600080fd5b60005b83811015611cd05781611cb68882611d97565b845260208401935060208301925050600181019050611ca3565b5050505092915050565b600081519050611ce981612e45565b92915050565b600082601f830112611d0057600080fd5b8151611d13611d0e82612bb8565b612b63565b91508082526020830160208301858383011115611d2f57600080fd5b611d3a838284612ddd565b50505092915050565b600082601f830112611d5457600080fd5b8151611d67611d6282612be4565b612b63565b91508082526020830160208301858383011115611d8357600080fd5b611d8e838284612ddd565b50505092915050565b600081519050611da681612e5c565b92915050565b600060408284031215611dbe57600080fd5b611dc86040612b63565b9050600082015167ffffffffffffffff811115611de457600080fd5b611df084828501611cef565b6000830152506020611e0484828501611f3d565b60208301525092915050565b600060408284031215611e2257600080fd5b611e2c6040612b63565b90506000611e3c84828501611cda565b600083015250602082015167ffffffffffffffff811115611e5c57600080fd5b611e6884828501611e74565b60208301525092915050565b600060c08284031215611e8657600080fd5b611e9060c0612b63565b9050600082015167ffffffffffffffff811115611eac57600080fd5b611eb884828501611dac565b6000830152506020611ecc84828501611f67565b6020830152506040611ee084828501611f67565b6040830152506060611ef484828501611f67565b6060830152506080611f0884828501611f3d565b60808301525060a0611f1c84828501611f3d565b60a08301525092915050565b600081519050611f3781612e73565b92915050565b600081519050611f4c81612e8a565b92915050565b600081359050611f6181612ea1565b92915050565b600081519050611f7681612ea1565b92915050565b600060208284031215611f8e57600080fd5b600082015167ffffffffffffffff811115611fa857600080fd5b611fb484828501611c57565b91505092915050565b600060208284031215611fcf57600080fd5b6000611fdd84828501611cda565b91505092915050565b600060208284031215611ff857600080fd5b600082015167ffffffffffffffff81111561201257600080fd5b61201e84828501611cef565b91505092915050565b60006020828403121561203957600080fd5b600082015167ffffffffffffffff81111561205357600080fd5b61205f84828501611d43565b91505092915050565b600080600080600080600060e0888a03121561208357600080fd5b600088015167ffffffffffffffff81111561209d57600080fd5b6120a98a828b01611cef565b97505060206120ba8a828b01611f28565b96505060406120cb8a828b01611f28565b955050606088015167ffffffffffffffff8111156120e857600080fd5b6120f48a828b01611cef565b94505060806121058a828b01611f28565b93505060a06121168a828b01611f28565b92505060c06121278a828b01611c42565b91505092959891949750929550565b60006020828403121561214857600080fd5b600082015167ffffffffffffffff81111561216257600080fd5b61216e84828501611e10565b91505092915050565b60006020828403121561218957600080fd5b600061219784828501611f28565b91505092915050565b6000602082840312156121b257600080fd5b60006121c084828501611f52565b91505092915050565b600080604083850312156121dc57600080fd5b60006121ea85828601611f52565b92505060206121fb85828601611f52565b9150509250929050565b6000612211838361245d565b60208301905092915050565b60006122298383612844565b60208301905092915050565b60006122418383612871565b60208301905092915050565b61225681612d95565b82525050565b600061226782612c37565b6122718185612c95565b935061227c83612c10565b8060005b838110156122ad5781516122948882612205565b975061229f83612c6e565b925050600181019050612280565b5085935050505092915050565b60006122c582612c42565b6122cf8185612ca6565b93506122da83612c1d565b8060005b8381101561230b5781516122f2888261221d565b97506122fd83612c7b565b9250506001810190506122de565b5085935050505092915050565b600061232382612c4d565b61232d8185612cb7565b935061233883612c2a565b8060005b838110156123695781516123508882612235565b975061235b83612c88565b92505060018101905061233c565b5085935050505092915050565b61237f81612d1e565b82525050565b61238e81612d1e565b82525050565b61239d81612d1e565b82525050565b60006123ae82612c63565b6123b88185612cd9565b93506123c8818560208601612ddd565b6123d181612e10565b840191505092915050565b60006123e782612c58565b6123f18185612cc8565b9350612401818560208601612ddd565b61240a81612e10565b840191505092915050565b600061242082612c58565b61242a8185612cea565b935061243a818560208601612ddd565b61244381612e10565b840191505092915050565b61245781612da7565b82525050565b61246681612d3d565b82525050565b6000612479601a83612cfb565b91507f53686f756c6420626520696e205245534f4c56452073746174650000000000006000830152602082019050919050565b60006124b9602683612cfb565b91507f53686f756c6420696e7365727420612076616c696420746f6b656e206964656e60008301527f74696669657200000000000000000000000000000000000000000000000000006020830152604082019050919050565b600061251f601483612cfb565b91507f4164647265737320616c726561647920706169640000000000000000000000006000830152602082019050919050565b600061255f601f83612cfb565b91507f53686f756c6420696e73657274206120706f73697469766520616d6f756e74006000830152602082019050919050565b600061259f602883612cfb565b91507f4164647265737320686173206e6f206265747320696e207468652077696e6e6960008301527f6e6720746f6b656e0000000000000000000000000000000000000000000000006020830152604082019050919050565b6000612605602883612cfb565b91507f53686f756c6420626520696e20574149545f524553554c54206f72205041594f60008301527f55542073746174650000000000000000000000000000000000000000000000006020830152604082019050919050565b600061266b602c83612cfb565b91507f4e6f7420656e6f7567682076616c756520746f207265736f6c7665207468652060008301527f64617461207265717565737400000000000000000000000000000000000000006020830152604082019050919050565b600060408301600083015184820360008601526126e18282612415565b91505060208301516126f66020860182612862565b508091505092915050565b600060a0830160008301516127196000860182612844565b50602083015184820360208601526127318282612318565b9150506040830151848203604086015261274b828261225c565b91505060608301516127606060860182612844565b5060808301516127736080860182612376565b508091505092915050565b60006040830160008301516127966000860182612394565b50602083015184820360208601526127ae82826127bb565b9150508091505092915050565b600060c08301600083015184820360008601526127d882826126c4565b91505060208301516127ed602086018261288f565b506040830151612800604086018261288f565b506060830151612813606086018261288f565b5060808301516128266080860182612862565b5060a083015161283960a0860182612862565b508091505092915050565b61284d81612d6a565b82525050565b61285c81612d6a565b82525050565b61286b81612d74565b82525050565b61287a81612d88565b82525050565b61288981612d88565b82525050565b61289881612d88565b82525050565b600060208201905081810360008301526128b881846122ba565b905092915050565b60006020820190506128d56000830184612385565b92915050565b600060208201905081810360008301526128f581846123a3565b905092915050565b6000604082019050818103600083015261291781856123dc565b90506129266020830184612853565b9392505050565b6000602082019050612942600083018461244e565b92915050565b600060208201905081810360008301526129618161246c565b9050919050565b60006020820190508181036000830152612981816124ac565b9050919050565b600060208201905081810360008301526129a181612512565b9050919050565b600060208201905081810360008301526129c181612552565b9050919050565b600060208201905081810360008301526129e181612592565b9050919050565b60006020820190508181036000830152612a01816125f8565b9050919050565b60006020820190508181036000830152612a218161265e565b9050919050565b60006020820190508181036000830152612a428184612701565b905092915050565b60006020820190508181036000830152612a64818461277e565b905092915050565b6000602082019050612a816000830184612853565b92915050565b6000602082019050612a9c6000830184612880565b92915050565b6000606082019050612ab76000830186612880565b612ac46020830185612853565b612ad1604083018461224d565b949350505050565b6000608082019050612aee6000830187612880565b612afb6020830186612853565b612b086040830185612385565b612b15606083018461224d565b95945050505050565b6000608082019050612b336000830187612880565b612b406020830186612880565b612b4d604083018561224d565b612b5a6060830184612853565b95945050505050565b6000604051905081810181811067ffffffffffffffff82111715612b8657600080fd5b8060405250919050565b600067ffffffffffffffff821115612ba757600080fd5b602082029050602081019050919050565b600067ffffffffffffffff821115612bcf57600080fd5b601f19601f8301169050602081019050919050565b600067ffffffffffffffff821115612bfb57600080fd5b601f19601f8301169050602081019050919050565b6000602082019050919050565b6000602082019050919050565b6000602082019050919050565b600081519050919050565b600081519050919050565b600081519050919050565b600081519050919050565b600081519050919050565b6000602082019050919050565b6000602082019050919050565b6000602082019050919050565b600082825260208201905092915050565b600082825260208201905092915050565b600082825260208201905092915050565b600082825260208201905092915050565b600082825260208201905092915050565b600082825260208201905092915050565b600082825260208201905092915050565b6000612d1782612d4a565b9050919050565b60008115159050919050565b6000819050612d3882612e21565b919050565b600081600f0b9050919050565b600073ffffffffffffffffffffffffffffffffffffffff82169050919050565b6000819050919050565b600067ffffffffffffffff82169050919050565b600060ff82169050919050565b6000612da082612db9565b9050919050565b6000612db282612d2a565b9050919050565b6000612dc482612dcb565b9050919050565b6000612dd682612d4a565b9050919050565b60005b83811015612dfb578082015181840152602081019050612de0565b83811115612e0a576000848401525b50505050565b6000601f19601f8301169050919050565b60068110612e2b57fe5b50565b612e3781612d0c565b8114612e4257600080fd5b50565b612e4e81612d1e565b8114612e5957600080fd5b50565b612e6581612d3d565b8114612e7057600080fd5b50565b612e7c81612d6a565b8114612e8757600080fd5b50565b612e9381612d74565b8114612e9e57600080fd5b50565b612eaa81612d88565b8114612eb557600080fd5b5056fea265627a7a72305820e5885014aed550aaf9b9ab9dd508ca6816a2da11f1d21630a4602e39dfedd39c6c6578706572696d656e74616cf50037608060405234801561001057600080fd5b5060405180610280016040528061024a815260200161035161024a913980600090805190602001906100439291906100f1565b506002816040518082805190602001908083835b6020831061007a5780518252602082019150602081019050602083039250610057565b6001836020036101000a038019825116818451168082178552505050505050905001915050602060405180830381855afa1580156100bc573d6000803e3d6000fd5b5050506040513d60208110156100d157600080fd5b810190808051906020019092919050505060001c60018190555050610196565b828054600181600116156101000203166002900490600052602060002090601f016020900481019282601f1061013257805160ff1916838001178555610160565b82800160010185558215610160579182015b8281111561015f578251825591602001919060010190610144565b5b50905061016d9190610171565b5090565b61019391905b8082111561018f576000816000905550600101610177565b5090565b90565b6101ac806101a56000396000f3fe608060405234801561001057600080fd5b50600436106100365760003560e01c8063af640d0f1461003b578063f094000214610059575b600080fd5b6100436100dc565b6040518082815260200191505060405180910390f35b6100616100e2565b6040518080602001828103825283818151815260200191508051906020019080838360005b838110156100a1578082015181840152602081019050610086565b50505050905090810190601f1680156100ce5780820380516001836020036101000a031916815260200191505b509250505060405180910390f35b60015481565b60008054600181600116156101000203166002900480601f0160208091040260200160405190810160405280929190818152602001828054600181600116156101000203166002900480156101785780601f1061014d57610100808354040283529160200191610178565b820191906000526020600020905b81548152906001019060200180831161015b57829003601f168201915b50505050508156fea165627a7a723058202de8787e475915a71bd821d57e0e10edd8fb06871ab21416c5710be4aac1eb5300290aba0408dbd9d2ec0512ad01122568747470733a2f2f6170692e636f696e6c6f72652e636f6d2f6170692f7469636b6572732f1a8301871845187482186164646174611870821853838218616673796d626f6c1875831844aa63425443f563454f53f563455443f563455448f563474e54f5644c494e4bf5634d4b52f563524550f56358545af5635a4543f5f4821859828218616673796d626f6c1875821856828218617270657263656e745f6368616e67655f323468187212a701122068747470733a2f2f6170692e636f696e6361702e696f2f76322f6173736574731a8201871845187482186164646174611870821853838218616673796d626f6c1875831844aa63425443f563454f53f563455443f563455448f563474e54f5644c494e4bf5634d4b52f563524550f56358545af5635a4543f5f4821859828218616673796d626f6c187582185682821861716368616e676550657263656e7432344872187212b901122668747470733a2f2f6170692e636f696e70617072696b612e636f6d2f76312f7469636b6572731a8e018518451870821853838218616673796d626f6c1875831844aa63425443f563454f53f563455443f563455448f563474e54f5644c494e4bf5634d4b52f563524550f56358545af5635a4543f5f4821859828218616673796d626f6c1875821856868218616671756f74657318748218616355534418748218617270657263656e745f6368616e67655f32346818721a070a05818218570322130a11828218570382185682821838192710183c10eb0718022002280130013801",
  "source": "pragma solidity ^0.5.0;\npragma experimental ABIEncoderV2;\n\nimport \"witnet-ethereum-bridge/contracts/UsingWitnet.sol\";\nimport \"./requests/TokenGradient.sol\";\n\n\n/**\n * @title Token Price Contest\n * @notice Contract for creating a contest in which one can bet on token prices\n * @author Stampery Labs\n */\ncontract TokenPriceContest is UsingWitnet {\n\n  // Event emitted when a bet is placed by a contest participant\n  event BetPlaced(uint8 day, uint8 tokenId, address sender, uint256 value);\n\n  // Event emitted when a contest resolve is triggered (i.e. Data Request is sent out)\n  event ResolveTriggered(uint8 day, uint256 requestId, address sender);\n\n  // Event is emitted when a contest result is read (i.e. Data Request is resolved and its result read)\n  event ResultRead(uint8 day, uint256 requestId, bool result, address sender);\n\n  // Timestamp (as seconds since unix epoch) from which the constest starts counting (to enable certain operations)\n  uint256 public firstDay;\n\n  // Fees to include for the data request\n  uint256 public requestFee;\n\n  // Fees to include for the report result\n  uint256 public resultFee;\n\n  // Time period for each contest\n  uint256 public contestPeriod;\n\n  // Number of tokens in the contest\n  uint8 public tokenLimit;\n\n  // Witnet Data Request for tokens\n  Request tokenGradientRequest;\n\n  // States define the action allowed in the current contest window\n  enum DayState{BET, WAIT, RESOLVE, WAIT_RESULT, PAYOUT, INVALID}\n\n  // Structure with token participations in a contest period (e.g. day)\n  struct TokenDay {\n    uint256 totalAmount;\n    mapping (address => uint256) participations;\n    mapping (address => bool) paid;\n  }\n\n  // Mapping of token participations\n  // Key: `uint16` contains two uint8 refering to day||TokenId\n  mapping (uint16 => TokenDay) bets;\n\n  // Structure with all the current bets information in a contest period (e.g. day)\n  struct DayInfo {\n    // total prize for a day\n    uint256 grandPrize;\n    // ordered ranking after result has been resolved\n    uint8[] ranking;\n    // result as given by the data request (floats multiplied by 10000)\n    int128[] result;\n    // id of the data request inserted in the WBI\n    uint256 witnetRequestId;\n    // result was read from WBI\n    bool witnetReadResult;\n  }\n\n  // Mapping of day infos\n  mapping(uint8 => DayInfo) dayInfos;\n\n  /// @dev Creates a Token Prize Contest\n  /// @param _firstDay timestamp of contest start time\n  /// @param _contestPeriod time period (in seconds) of each contest window (e.g. a day)\n  /// @param _tokenLimit Number of tokens in the contest\n  /// @param _wbi address of Witnet Bridge Interface\n  /// @param _requestFee fee for data request forward\n  /// @param _resultFee fee for data request result\n  constructor(\n    uint256 _firstDay,\n    uint256 _contestPeriod,\n    uint8 _tokenLimit,\n    address _wbi,\n    uint256 _requestFee,\n    uint256 _resultFee) UsingWitnet(_wbi) public\n  {\n    firstDay = _firstDay;\n    contestPeriod = _contestPeriod;\n    tokenLimit = _tokenLimit;\n    requestFee = _requestFee;\n    resultFee = _resultFee;\n    tokenGradientRequest = new TokenGradientRequest();\n  }\n\n  /// @dev Gets the timestamp of the current block as seconds since unix epoch\n  /// @return timestamp\n  function getTimestamp() public view returns (uint256) {\n    return block.timestamp;\n  }\n\n  /// @dev Places a bet on a token identifier\n  /// @param _tokenId token identifier\n  function placeBet(uint8 _tokenId) public payable {\n    require(msg.value > 0, \"Should insert a positive amount\");\n    require(_tokenId < tokenLimit, \"Should insert a valid token identifier\");\n\n    // Calculate the day of the current bet\n    uint8 betDay = getCurrentDay();\n    // Create Bet: u8Concat\n    uint16 betId = u8Concat(betDay, _tokenId);\n\n    // Upsert Bets mapping (day||tokenId) with TokenDay\n    bets[betId].totalAmount = bets[betId].totalAmount + msg.value;\n    bets[betId].participations[msg.sender] += msg.value;\n    bets[betId].paid[msg.sender] = false;\n\n    // Upsert DayInfo (day)\n    dayInfos[betDay].grandPrize = dayInfos[betDay].grandPrize + msg.value;\n\n    emit BetPlaced(betDay, _tokenId, msg.sender, msg.value);\n  }\n\n  /// @dev Resolves a contest day if it is in RESOLVE state\n  /// @param _day contest day to be resolved\n  function resolve(uint8 _day) public payable {\n    // Check if BET is allowed\n    require(msg.value >= requestFee + resultFee, \"Not enough value to resolve the data request\");\n    require(getDayState(_day) == DayState.RESOLVE, \"Should be in RESOLVE state\");\n\n    // Post Witnet data request\n    uint256 requestId = witnetPostRequest(tokenGradientRequest, requestFee, resultFee);\n    dayInfos[_day].witnetRequestId = requestId;\n\n    emit ResolveTriggered(_day, requestId, msg.sender);\n  }\n\n  /// @dev Pays out upon data request resolution (i.e. state should be `WAIT_RESULT` or `PAYOUT`)\n  /// @param _day contest day of the payout\n  function payout(uint8 _day) public payable {\n    require(\n      (getDayState(_day) == DayState.WAIT_RESULT) || (getDayState(_day) == DayState.PAYOUT),\n      \"Should be in WAIT_RESULT or PAYOUT state\"\n    );\n\n    // Result has not been read yet (first time)\n    if (dayInfos[_day].witnetReadResult == false) {\n      Witnet.Result memory result = witnetReadResult(dayInfos[_day].witnetRequestId);\n      dayInfos[_day].witnetReadResult = true;\n      emit ResultRead(_day, dayInfos[_day].witnetRequestId, result.isOk(), msg.sender);\n      if (result.isOk()) {\n        int128[] memory requestResult = result.asInt128Array();\n        uint8[] memory ranked = rank(requestResult);\n        dayInfos[_day].result = requestResult;\n        dayInfos[_day].ranking = ranked;\n      }\n    }\n\n    // Result was read but with an error (payout participations)\n    if (dayInfos[_day].result.length == 0) {\n      uint16 offset = u8Concat(_day, 0);\n      for (uint16 i = 0; i<tokenLimit; i++) {\n        if (bets[i+offset].paid[msg.sender] == false &&\n          bets[i+offset].participations[msg.sender] > 0) {\n          bets[i+offset].paid[msg.sender] = true;\n          msg.sender.transfer(bets[i+offset].participations[msg.sender]);\n        }\n      }\n    } else { // Result is Ok (payout to winners)\n      // Check legit payout\n      uint16 dayTokenId = u8Concat(_day, dayInfos[_day].ranking[0]);\n      require(bets[dayTokenId].paid[msg.sender] == false, \"Address already paid\");\n      require(bets[dayTokenId].participations[msg.sender] > 0, \"Address has no bets in the winning token\");\n      // Prize calculation\n      uint256 grandPrize = dayInfos[_day].grandPrize;\n      uint256 winnerAmount = bets[dayTokenId].totalAmount;\n      uint256 prize_share = grandPrize / winnerAmount;\n      uint256 prize = bets[dayTokenId].participations[msg.sender] * prize_share;\n      // Set paid flag and Transfer\n      bets[dayTokenId].paid[msg.sender] = true;\n      msg.sender.transfer(prize);\n    }\n  }\n\n  /// @dev Gets a contest day state\n  /// @param _day contest day\n  /// @return day state\n  function getDayState(uint8 _day) public returns (DayState) {\n    uint256 timestamp = getTimestamp();\n    uint256 currentDay = (timestamp - firstDay) / contestPeriod;\n    if (_day == currentDay) {\n      return DayState.BET;\n    } else if (_day > currentDay) {\n      // Bet in the future\n      return DayState.INVALID;\n    } else if (dayInfos[_day].grandPrize == 0) {\n      // BetDay is in the past but there were no bets\n      return DayState.PAYOUT;\n    } else if (_day == currentDay - 1) {\n      // Waiting day\n      return DayState.WAIT;\n    } else if (dayInfos[_day].witnetRequestId == 0) {\n      // BetDay is in the past with bets but no DR yet\n      return DayState.RESOLVE;\n    } else if (!dayInfos[_day].witnetReadResult) {\n      // BetDay is in the past with bets and DR but no result yet\n      return DayState.WAIT_RESULT;\n    }  else {\n      // BetDay is in the past with bets, DR and the results\n      return DayState.PAYOUT;\n    }\n  }\n\n  /// @dev Checks if the day contest result is ready to be read\n  /// @param _day contest day\n  /// @return true, if result is ready\n  function isResultReady(uint8 _day) public view returns(bool) {\n    (,,,bytes memory result,,,) = wbi.requests(dayInfos[_day].witnetRequestId);\n    return result.length > 0;\n  }\n\n  /// @dev Reads the total amount bet for a day and a token identifier\n  /// @param _day contest day\n  /// @param _tokenId token identifier\n  /// @return total amount of bets\n  function getTotalAmountTokenDay(uint8 _day, uint8 _tokenId) public view returns (uint256) {\n    return bets[u8Concat(_day, _tokenId)].totalAmount;\n  }\n\n  /// @dev Reads the participations of the sender for a given day\n  /// @param _day contest day\n  /// @return array with the participations for each token\n  function getMyBetsDay(uint8 _day) public view returns (uint256[] memory) {\n    uint256[] memory results = new uint256[](tokenLimit);\n    uint16 offset = u8Concat(_day, 0);\n    for (uint16 i = 0; i<tokenLimit; i++) {\n      results[i] = bets[i+offset].participations[msg.sender];\n    }\n\n    return results;\n  }\n\n  /// @dev Reads day information\n  /// @param _day contest day\n  /// @return day info structure\n  function getDayInfo(uint8 _day) public view returns (DayInfo memory) {\n    return dayInfos[_day];\n  }\n\n  /// @dev Read last block timestamp and calculate difference with firstDay timestamp\n  /// @return index of current day\n  function getCurrentDay() public returns (uint8) {\n    uint256 timestamp = getTimestamp();\n    uint256 daysDiff = (timestamp - firstDay) / contestPeriod;\n\n    return uint8(daysDiff);\n  }\n\n  /// @dev Concatenates two `uint8`\n  /// @param _l left component\n  /// @param _r right component\n  /// @return _l||_r\n  function u8Concat(uint8 _l, uint8 _r) internal pure returns (uint16) {\n    return (uint16(_l) << 8) | _r;\n  }\n\n  /// @dev Ranks a given input array\n  /// @param input array to be ordered\n  /// @return ordered array\n  function rank(int128[] memory input) internal pure returns (uint8[] memory) {\n    // Ranks the given input array\n    uint8[] memory ranked = new uint8[](input.length);\n    uint8[] memory result = new uint8[](input.length);\n\n    for (uint8 i = 0; i < input.length; i++) {\n      uint8 curRank = 0;\n      for (uint8 j = 0; j < i; j++) {\n        if (input[j] > input[i]) {\n          curRank++;\n        } else {\n          ranked[j]++;\n        }\n      }\n      ranked[i] = curRank;\n    }\n\n    for (uint8 i = 0; i < ranked.length; i++) {\n      result[ranked[i]] = i;\n    }\n    return result;\n  }\n}\n",
  "sourcePath": "/home/cyric/git/stampery-labs/witnet-tokenprice-example-contracts/contracts/TokenPriceContest.sol",
  "compiler": {
    "name": "solc",
    "version": "0.5.8+commit.23d335f2.Emscripten.clang"
  },
  "schemaVersion": "3.0.16",
  "updatedAt": "2019-10-02T13:59:23.212Z",
  "devdoc": {
    "author": "Stampery Labs",
    "methods": {
      "constructor": {
        "details": "Creates a Token Prize Contest",
        "params": {
          "_contestPeriod": "time period (in seconds) of each contest window (e.g. a day)",
          "_firstDay": "timestamp of contest start time",
          "_requestFee": "fee for data request forward",
          "_resultFee": "fee for data request result",
          "_tokenLimit": "Number of tokens in the contest",
          "_wbi": "address of Witnet Bridge Interface"
        }
      },
      "getCurrentDay()": {
        "details": "Read last block timestamp and calculate difference with firstDay timestamp",
        "return": "index of current day"
      },
      "getDayInfo(uint8)": {
        "details": "Reads day information",
        "params": {
          "_day": "contest day"
        },
        "return": "day info structure"
      },
      "getDayState(uint8)": {
        "details": "Gets a contest day state",
        "params": {
          "_day": "contest day"
        },
        "return": "day state"
      },
      "getMyBetsDay(uint8)": {
        "details": "Reads the participations of the sender for a given day",
        "params": {
          "_day": "contest day"
        },
        "return": "array with the participations for each token"
      },
      "getTimestamp()": {
        "details": "Gets the timestamp of the current block as seconds since unix epoch",
        "return": "timestamp"
      },
      "getTotalAmountTokenDay(uint8,uint8)": {
        "details": "Reads the total amount bet for a day and a token identifier",
        "params": {
          "_day": "contest day",
          "_tokenId": "token identifier"
        },
        "return": "total amount of bets"
      },
      "isResultReady(uint8)": {
        "details": "Checks if the day contest result is ready to be read",
        "params": {
          "_day": "contest day"
        },
        "return": "true, if result is ready"
      },
      "payout(uint8)": {
        "details": "Pays out upon data request resolution (i.e. state should be `WAIT_RESULT` or `PAYOUT`)",
        "params": {
          "_day": "contest day of the payout"
        }
      },
      "placeBet(uint8)": {
        "details": "Places a bet on a token identifier",
        "params": {
          "_tokenId": "token identifier"
        }
      },
      "resolve(uint8)": {
        "details": "Resolves a contest day if it is in RESOLVE state",
        "params": {
          "_day": "contest day to be resolved"
        }
      }
    },
    "title": "Token Price Contest"
  },
  "userdoc": {
    "methods": {},
    "notice": "Contract for creating a contest in which one can bet on token prices"
  }
}