{
  "contractName": "TokenPriceContest",
  "abi": [
    {
      "constant": true,
      "inputs": [],
      "name": "contestPeriod",
      "outputs": [
        {
          "name": "",
          "type": "uint256"
        }
      ],
      "payable": false,
      "stateMutability": "view",
      "type": "function"
    },
    {
      "constant": true,
      "inputs": [],
      "name": "tokenLimit",
      "outputs": [
        {
          "name": "",
          "type": "uint8"
        }
      ],
      "payable": false,
      "stateMutability": "view",
      "type": "function"
    },
    {
      "constant": true,
      "inputs": [],
      "name": "resultFee",
      "outputs": [
        {
          "name": "",
          "type": "uint256"
        }
      ],
      "payable": false,
      "stateMutability": "view",
      "type": "function"
    },
    {
      "constant": true,
      "inputs": [],
      "name": "firstDay",
      "outputs": [
        {
          "name": "",
          "type": "uint256"
        }
      ],
      "payable": false,
      "stateMutability": "view",
      "type": "function"
    },
    {
      "constant": true,
      "inputs": [],
      "name": "requestFee",
      "outputs": [
        {
          "name": "",
          "type": "uint256"
        }
      ],
      "payable": false,
      "stateMutability": "view",
      "type": "function"
    },
    {
      "inputs": [
        {
          "name": "_firstDay",
          "type": "uint256"
        },
        {
          "name": "_contestPeriod",
          "type": "uint256"
        },
        {
          "name": "_tokenLimit",
          "type": "uint8"
        },
        {
          "name": "_wbi",
          "type": "address"
        },
        {
          "name": "_requestFee",
          "type": "uint256"
        },
        {
          "name": "_resultFee",
          "type": "uint256"
        }
      ],
      "payable": false,
      "stateMutability": "nonpayable",
      "type": "constructor"
    },
    {
      "anonymous": false,
      "inputs": [
        {
          "indexed": false,
          "name": "day",
          "type": "uint8"
        },
        {
          "indexed": false,
          "name": "tokenId",
          "type": "uint8"
        },
        {
          "indexed": false,
          "name": "sender",
          "type": "address"
        },
        {
          "indexed": false,
          "name": "value",
          "type": "uint256"
        }
      ],
      "name": "BetPlaced",
      "type": "event"
    },
    {
      "anonymous": false,
      "inputs": [
        {
          "indexed": false,
          "name": "day",
          "type": "uint8"
        },
        {
          "indexed": false,
          "name": "requestId",
          "type": "uint256"
        },
        {
          "indexed": false,
          "name": "sender",
          "type": "address"
        }
      ],
      "name": "ResolveTriggered",
      "type": "event"
    },
    {
      "anonymous": false,
      "inputs": [
        {
          "indexed": false,
          "name": "day",
          "type": "uint8"
        },
        {
          "indexed": false,
          "name": "requestId",
          "type": "uint256"
        },
        {
          "indexed": false,
          "name": "result",
          "type": "bool"
        },
        {
          "indexed": false,
          "name": "sender",
          "type": "address"
        }
      ],
      "name": "ResultRead",
      "type": "event"
    },
    {
      "constant": true,
      "inputs": [],
      "name": "getTimestamp",
      "outputs": [
        {
          "name": "",
          "type": "uint256"
        }
      ],
      "payable": false,
      "stateMutability": "view",
      "type": "function"
    },
    {
      "constant": false,
      "inputs": [
        {
          "name": "_tokenId",
          "type": "uint8"
        }
      ],
      "name": "placeBet",
      "outputs": [],
      "payable": true,
      "stateMutability": "payable",
      "type": "function"
    },
    {
      "constant": false,
      "inputs": [
        {
          "name": "_day",
          "type": "uint8"
        }
      ],
      "name": "resolve",
      "outputs": [],
      "payable": true,
      "stateMutability": "payable",
      "type": "function"
    },
    {
      "constant": true,
      "inputs": [
        {
          "name": "_day",
          "type": "uint8"
        }
      ],
      "name": "getRankingFromWitnet",
      "outputs": [
        {
          "name": "",
          "type": "uint8[]"
        }
      ],
      "payable": false,
      "stateMutability": "view",
      "type": "function"
    },
    {
      "constant": false,
      "inputs": [
        {
          "name": "_day",
          "type": "uint8"
        }
      ],
      "name": "payout",
      "outputs": [],
      "payable": true,
      "stateMutability": "payable",
      "type": "function"
    },
    {
      "constant": false,
      "inputs": [
        {
          "name": "_day",
          "type": "uint8"
        }
      ],
      "name": "getDayState",
      "outputs": [
        {
          "name": "",
          "type": "uint8"
        }
      ],
      "payable": false,
      "stateMutability": "nonpayable",
      "type": "function"
    },
    {
      "constant": true,
      "inputs": [
        {
          "name": "_day",
          "type": "uint8"
        }
      ],
      "name": "isResultReady",
      "outputs": [
        {
          "name": "",
          "type": "bool"
        }
      ],
      "payable": false,
      "stateMutability": "view",
      "type": "function"
    },
    {
      "constant": true,
      "inputs": [
        {
          "name": "_day",
          "type": "uint8"
        },
        {
          "name": "_tokenId",
          "type": "uint8"
        }
      ],
      "name": "getTotalAmountTokenDay",
      "outputs": [
        {
          "name": "",
          "type": "uint256"
        }
      ],
      "payable": false,
      "stateMutability": "view",
      "type": "function"
    },
    {
      "constant": true,
      "inputs": [
        {
          "name": "_day",
          "type": "uint8"
        }
      ],
      "name": "getMyBetsDay",
      "outputs": [
        {
          "name": "",
          "type": "uint256[]"
        }
      ],
      "payable": false,
      "stateMutability": "view",
      "type": "function"
    },
    {
      "constant": true,
      "inputs": [
        {
          "name": "_day",
          "type": "uint8"
        }
      ],
      "name": "getMyBetsDayWins",
      "outputs": [
        {
          "name": "",
          "type": "uint256[]"
        },
        {
          "name": "",
          "type": "uint256"
        }
      ],
      "payable": false,
      "stateMutability": "view",
      "type": "function"
    },
    {
      "constant": true,
      "inputs": [
        {
          "name": "_day",
          "type": "uint8"
        }
      ],
      "name": "getMyDayWins",
      "outputs": [
        {
          "name": "",
          "type": "uint256"
        }
      ],
      "payable": false,
      "stateMutability": "view",
      "type": "function"
    },
    {
      "constant": true,
      "inputs": [
        {
          "name": "_day",
          "type": "uint8"
        }
      ],
      "name": "getDayInfo",
      "outputs": [
        {
          "components": [
            {
              "name": "grandPrize",
              "type": "uint256"
            },
            {
              "name": "ranking",
              "type": "uint8[]"
            },
            {
              "name": "result",
              "type": "int128[]"
            },
            {
              "name": "witnetRequestId",
              "type": "uint256"
            },
            {
              "name": "witnetReadResult",
              "type": "bool"
            }
          ],
          "name": "",
          "type": "tuple"
        }
      ],
      "payable": false,
      "stateMutability": "view",
      "type": "function"
    },
    {
      "constant": false,
      "inputs": [],
      "name": "getCurrentDay",
      "outputs": [
        {
          "name": "",
          "type": "uint8"
        }
      ],
      "payable": false,
      "stateMutability": "nonpayable",
      "type": "function"
    }
  ],
  "bytecode": "0x60806040523480156200001157600080fd5b5060405160c08062004391833981018060405262000033919081019062000177565b82806000806101000a81548173ffffffffffffffffffffffffffffffffffffffff021916908373ffffffffffffffffffffffffffffffffffffffff16021790555050856001819055508460048190555083600560006101000a81548160ff021916908360ff1602179055508160028190555080600381905550604051620000ba9062000124565b604051809103906000f080158015620000d7573d6000803e3d6000fd5b50600560016101000a81548173ffffffffffffffffffffffffffffffffffffffff021916908373ffffffffffffffffffffffffffffffffffffffff160217905550505050505050620002a6565b6106c88062003cc983390190565b600081519050620001438162000258565b92915050565b6000815190506200015a8162000272565b92915050565b60008151905062000171816200028c565b92915050565b60008060008060008060c087890312156200019157600080fd5b6000620001a189828a0162000149565b9650506020620001b489828a0162000149565b9550506040620001c789828a0162000160565b9450506060620001da89828a0162000132565b9350506080620001ed89828a0162000149565b92505060a06200020089828a0162000149565b9150509295509295509295565b60006200021a8262000221565b9050919050565b600073ffffffffffffffffffffffffffffffffffffffff82169050919050565b6000819050919050565b600060ff82169050919050565b62000263816200020d565b81146200026f57600080fd5b50565b6200027d8162000241565b81146200028957600080fd5b50565b62000297816200024b565b8114620002a357600080fd5b50565b613a1380620002b66000396000f3fe6080604052600436106101095760003560e01c806362bd3b7e11610095578063b00bee7111610064578063b00bee711461036a578063cf1405fe146103a7578063d96fe97d146103d2578063e5f81a711461040f578063eb2e578b1461044d57610109565b806362bd3b7e146102a957806365e8fa91146102d45780638ca9f69e14610311578063a0270dbc1461034e57610109565b80633e6968b6116100dc5780633e6968b6146101bd57806343046844146101e85780634791151d14610204578063481a117a1461024157806356c7627e1461027e57610109565b8063071a2b521461010e5780630e6b975214610139578063153f2b4b14610176578063188ec35614610192575b600080fd5b34801561011a57600080fd5b50610123610478565b6040516101309190613557565b60405180910390f35b34801561014557600080fd5b50610160600480360361015b9190810190612b7e565b61047e565b60405161016d9190613557565b60405180910390f35b610190600480360361018b9190810190612b55565b6104b0565b005b34801561019e57600080fd5b506101a7610dcd565b6040516101b49190613557565b60405180910390f35b3480156101c957600080fd5b506101d2610dd5565b6040516101df9190613572565b60405180910390f35b61020260048036036101fd9190810190612b55565b610dfe565b005b34801561021057600080fd5b5061022b60048036036102269190810190612b55565b611053565b6040516102389190613369565b60405180910390f35b34801561024d57600080fd5b5061026860048036036102639190810190612b55565b611311565b6040516102759190613317565b60405180910390f35b34801561028a57600080fd5b5061029361141d565b6040516102a09190613572565b60405180910390f35b3480156102b557600080fd5b506102be611430565b6040516102cb9190613557565b60405180910390f35b3480156102e057600080fd5b506102fb60048036036102f69190810190612b55565b611436565b604051610308919061338b565b60405180910390f35b34801561031d57600080fd5b5061033860048036036103339190810190612b55565b61151a565b6040516103459190613513565b60405180910390f35b61036860048036036103639190810190612b55565b611678565b005b34801561037657600080fd5b50610391600480360361038c9190810190612b55565b6117b7565b60405161039e91906133f8565b60405180910390f35b3480156103b357600080fd5b506103bc6118b0565b6040516103c99190613557565b60405180910390f35b3480156103de57600080fd5b506103f960048036036103f49190810190612b55565b6118b6565b6040516104069190613557565b60405180910390f35b34801561041b57600080fd5b5061043660048036036104319190810190612b55565b611ebb565b604051610444929190613339565b60405180910390f35b34801561045957600080fd5b50610462611ee6565b60405161046f9190613557565b60405180910390f35b60045481565b60006006600061048e8585611eec565b61ffff1661ffff16815260200190815260200160002060000154905092915050565b600360058111156104bd57fe5b6104c6826117b7565b60058111156104d157fe5b14806104fb5750600460058111156104e557fe5b6104ee826117b7565b60058111156104f957fe5b145b61053a576040517f08c379a0000000000000000000000000000000000000000000000000000000008152600401610531906134d3565b60405180910390fd5b60001515600760008360ff1660ff16815260200190815260200160002060040160009054906101000a900460ff161515141561084957610578612339565b61059d600760008460ff1660ff16815260200190815260200160002060030154611f07565b90506001600760008460ff1660ff16815260200190815260200160002060040160006101000a81548160ff0219169083151502179055507f099b4d545a589e9ad30e00a5a1bc40d44d21c8ca386c2502a8c2715a1b2d4bdd82600760008560ff1660ff168152602001908152602001600020600301548373__Witnet________________________________636646c11990916040518263ffffffff1660e01b815260040161064c9190613535565b60206040518083038186803b15801561066457600080fd5b505af4158015610678573d6000803e3d6000fd5b505050506040513d601f19601f8201168201806040525061069c9190810190612972565b336040516106ad94939291906135c4565b60405180910390a18073__Witnet________________________________636646c11990916040518263ffffffff1660e01b81526004016106ee9190613535565b60206040518083038186803b15801561070657600080fd5b505af415801561071a573d6000803e3d6000fd5b505050506040513d601f19601f8201168201806040525061073e9190810190612972565b156108475760608173__Witnet________________________________63fc853c3790916040518263ffffffff1660e01b815260040161077e9190613535565b60006040518083038186803b15801561079657600080fd5b505af41580156107aa573d6000803e3d6000fd5b505050506040513d6000823e3d601f19601f820116820180604052506107d39190810190612931565b905060606107e082612050565b905081600760008660ff1660ff168152602001908152602001600020600201908051906020019061081292919061235c565b5080600760008660ff1660ff1681526020019081526020016000206001019080519060200190610843929190612433565b5050505b505b6000600760008360ff1660ff168152602001908152602001600020600201805490501415610ab357600061087e826000611eec565b905060008090505b600560009054906101000a900460ff1660ff168161ffff161015610aac57600015156006600084840161ffff1661ffff16815260200190815260200160002060020160003373ffffffffffffffffffffffffffffffffffffffff1673ffffffffffffffffffffffffffffffffffffffff16815260200190815260200160002060009054906101000a900460ff16151514801561097f575060006006600084840161ffff1661ffff16815260200190815260200160002060010160003373ffffffffffffffffffffffffffffffffffffffff1673ffffffffffffffffffffffffffffffffffffffff16815260200190815260200160002054115b15610a9f5760016006600084840161ffff1661ffff16815260200190815260200160002060020160003373ffffffffffffffffffffffffffffffffffffffff1673ffffffffffffffffffffffffffffffffffffffff16815260200190815260200160002060006101000a81548160ff0219169083151502179055503373ffffffffffffffffffffffffffffffffffffffff166108fc6006600085850161ffff1661ffff16815260200190815260200160002060010160003373ffffffffffffffffffffffffffffffffffffffff1673ffffffffffffffffffffffffffffffffffffffff168152602001908152602001600020549081150290604051600060405180830381858888f19350505050158015610a9d573d6000803e3d6000fd5b505b8080600101915050610886565b5050610dca565b6000610b0682600760008560ff1660ff168152602001908152602001600020600101600081548110610ae157fe5b90600052602060002090602091828204019190069054906101000a900460ff16611eec565b905060001515600660008361ffff1661ffff16815260200190815260200160002060020160003373ffffffffffffffffffffffffffffffffffffffff1673ffffffffffffffffffffffffffffffffffffffff16815260200190815260200160002060009054906101000a900460ff16151514610bb7576040517f08c379a0000000000000000000000000000000000000000000000000000000008152600401610bae90613473565b60405180910390fd5b6000600660008361ffff1661ffff16815260200190815260200160002060010160003373ffffffffffffffffffffffffffffffffffffffff1673ffffffffffffffffffffffffffffffffffffffff1681526020019081526020016000205411610c55576040517f08c379a0000000000000000000000000000000000000000000000000000000008152600401610c4c906134b3565b60405180910390fd5b6000600760008460ff1660ff1681526020019081526020016000206000015490506000600660008461ffff1661ffff1681526020019081526020016000206000015490506000818381610ca457fe5b049050600081600660008761ffff1661ffff16815260200190815260200160002060010160003373ffffffffffffffffffffffffffffffffffffffff1673ffffffffffffffffffffffffffffffffffffffff168152602001908152602001600020540290506001600660008761ffff1661ffff16815260200190815260200160002060020160003373ffffffffffffffffffffffffffffffffffffffff1673ffffffffffffffffffffffffffffffffffffffff16815260200190815260200160002060006101000a81548160ff0219169083151502179055503373ffffffffffffffffffffffffffffffffffffffff166108fc829081150290604051600060405180830381858888f19350505050158015610dc3573d6000803e3d6000fd5b5050505050505b50565b600042905090565b600080610de0610dcd565b90506000600454600154830381610df357fe5b049050809250505090565b60003411610e41576040517f08c379a0000000000000000000000000000000000000000000000000000000008152600401610e3890613493565b60405180910390fd5b600560009054906101000a900460ff1660ff168160ff1610610e98576040517f08c379a0000000000000000000000000000000000000000000000000000000008152600401610e8f90613453565b60405180910390fd5b6000610ea2610dd5565b90506000610eb08284611eec565b905034600660008361ffff1661ffff1681526020019081526020016000206000015401600660008361ffff1661ffff1681526020019081526020016000206000018190555034600660008361ffff1661ffff16815260200190815260200160002060010160003373ffffffffffffffffffffffffffffffffffffffff1673ffffffffffffffffffffffffffffffffffffffff168152602001908152602001600020600082825401925050819055506000600660008361ffff1661ffff16815260200190815260200160002060020160003373ffffffffffffffffffffffffffffffffffffffff1673ffffffffffffffffffffffffffffffffffffffff16815260200190815260200160002060006101000a81548160ff02191690831515021790555034600760008460ff1660ff1681526020019081526020016000206000015401600760008460ff1660ff168152602001908152602001600020600001819055507f3c442d4091d4b2a2178f7e7f6dc2c28cc9a8487d95d2238f8430aa386c538a24828433346040516110469493929190613609565b60405180910390a1505050565b606080600560009054906101000a900460ff1660ff166040519080825280602002602001820160405280156110975781602001602082028038833980820191505090505b509050600760008460ff1660ff16815260200190815260200160002060040160009054906101000a900460ff161561116257600760008460ff1660ff16815260200190815260200160002060010180548060200260200160405190810160405280929190818152602001828054801561115557602002820191906000526020600020906000905b82829054906101000a900460ff1660ff168152602001906001019060208260000104928301926001038202915080841161111e5790505b505050505091505061130c565b61116b83611436565b1561130757611178612339565b61119d600760008660ff1660ff16815260200190815260200160002060030154611f07565b90508073__Witnet________________________________636646c11990916040518263ffffffff1660e01b81526004016111d89190613535565b60206040518083038186803b1580156111f057600080fd5b505af4158015611204573d6000803e3d6000fd5b505050506040513d601f19601f820116820180604052506112289190810190612972565b611267576040517f08c379a000000000000000000000000000000000000000000000000000000000815260040161125e90613413565b60405180910390fd5b60608173__Witnet________________________________63fc853c3790916040518263ffffffff1660e01b81526004016112a29190613535565b60006040518083038186803b1580156112ba57600080fd5b505af41580156112ce573d6000803e3d6000fd5b505050506040513d6000823e3d601f19601f820116820180604052506112f79190810190612931565b905061130281612050565b925050505b809150505b919050565b606080600560009054906101000a900460ff1660ff166040519080825280602002602001820160405280156113555781602001602082028038833980820191505090505b5090506000611365846000611eec565b905060008090505b600560009054906101000a900460ff1660ff168161ffff161015611412576006600083830161ffff1661ffff16815260200190815260200160002060010160003373ffffffffffffffffffffffffffffffffffffffff1673ffffffffffffffffffffffffffffffffffffffff16815260200190815260200160002054838261ffff16815181106113f957fe5b602002602001018181525050808060010191505061136d565b508192505050919050565b600560009054906101000a900460ff1681565b60035481565b600060606000809054906101000a900473ffffffffffffffffffffffffffffffffffffffff1673ffffffffffffffffffffffffffffffffffffffff166381d12c58600760008660ff1660ff168152602001908152602001600020600301546040518263ffffffff1660e01b81526004016114b09190613557565b60006040518083038186803b1580156114c857600080fd5b505afa1580156114dc573d6000803e3d6000fd5b505050506040513d6000823e3d601f19601f820116820180604052506115059190810190612a1d565b50505093505050506000815111915050919050565b6115226124da565b600760008360ff1660ff1681526020019081526020016000206040518060a001604052908160008201548152602001600182018054806020026020016040519081016040528092919081815260200182805480156115c557602002820191906000526020600020906000905b82829054906101000a900460ff1660ff168152602001906001019060208260000104928301926001038202915080841161158e5790505b505050505081526020016002820180548060200260200160405190810160405280929190818152602001828054801561164357602002820191906000526020600020906000905b82829054906101000a9004600f0b600f0b81526020019060100190602082600f0104928301926001038202915080841161160c5790505b50505050508152602001600382015481526020016004820160009054906101000a900460ff1615151515815250509050919050565b600354600254013410156116c1576040517f08c379a00000000000000000000000000000000000000000000000000000000081526004016116b8906134f3565b60405180910390fd5b600260058111156116ce57fe5b6116d7826117b7565b60058111156116e257fe5b14611722576040517f08c379a000000000000000000000000000000000000000000000000000000000815260040161171990613433565b60405180910390fd5b6000611755600560019054906101000a900473ffffffffffffffffffffffffffffffffffffffff166002546003546121fb565b905080600760008460ff1660ff168152602001908152602001600020600301819055507fc4125a01dbe9543a65397da7cc43aae2b7dcc4b579ed11fbce57c3b092cb107d8282336040516117ab9392919061358d565b60405180910390a15050565b6000806117c2610dd5565b90508060ff168360ff1614156117dc5760009150506118ab565b8060ff168360ff1611156117f45760059150506118ab565b6000600760008560ff1660ff1681526020019081526020016000206000015414156118235760049150506118ab565b6001810360ff168360ff16141561183e5760019150506118ab565b6000600760008560ff1660ff16815260200190815260200160002060030154141561186d5760029150506118ab565b600760008460ff1660ff16815260200190815260200160002060040160009054906101000a900460ff166118a55760039150506118ab565b60049150505b919050565b60015481565b6000806000600760008560ff1660ff1681526020019081526020016000206003015414806118ea57506118e883611436565b155b156118f85780915050611eb6565b6060600560009054906101000a900460ff1660ff1660405190808252806020026020018201604052801561193b5781602001602082028038833980820191505090505b509050600760008560ff1660ff16815260200190815260200160002060040160009054906101000a900460ff1615611a0557600760008560ff1660ff1681526020019081526020016000206001018054806020026020016040519081016040528092919081815260200182805480156119f957602002820191906000526020600020906000905b82829054906101000a900460ff1660ff16815260200190600101906020826000010492830192600103820291508084116119c25790505b50505050509050611b5d565b611a0d612339565b611a32600760008760ff1660ff16815260200190815260200160002060030154611f07565b90508073__Witnet________________________________636646c11990916040518263ffffffff1660e01b8152600401611a6d9190613535565b60206040518083038186803b158015611a8557600080fd5b505af4158015611a99573d6000803e3d6000fd5b505050506040513d601f19601f82011682018060405250611abd9190810190612972565b15611b5b57611b588173__Witnet________________________________63fc853c3790916040518263ffffffff1660e01b8152600401611afe9190613535565b60006040518083038186803b158015611b1657600080fd5b505af4158015611b2a573d6000803e3d6000fd5b505050506040513d6000823e3d601f19601f82011682018060405250611b539190810190612931565b612050565b91505b505b600081511415611cf6576000611b74856000611eec565b905060008090505b600560009054906101000a900460ff1660ff168161ffff161015611cea57600015156006600084840161ffff1661ffff16815260200190815260200160002060020160003373ffffffffffffffffffffffffffffffffffffffff1673ffffffffffffffffffffffffffffffffffffffff16815260200190815260200160002060009054906101000a900460ff161515148015611c75575060006006600084840161ffff1661ffff16815260200190815260200160002060010160003373ffffffffffffffffffffffffffffffffffffffff1673ffffffffffffffffffffffffffffffffffffffff16815260200190815260200160002054115b15611cdd576006600083830161ffff1661ffff16815260200190815260200160002060010160003373ffffffffffffffffffffffffffffffffffffffff1673ffffffffffffffffffffffffffffffffffffffff16815260200190815260200160002054840193505b8080600101915050611b7c565b50829350505050611eb6565b6000611d168583600081518110611d0957fe5b6020026020010151611eec565b9050600660008261ffff1661ffff16815260200190815260200160002060020160003373ffffffffffffffffffffffffffffffffffffffff1673ffffffffffffffffffffffffffffffffffffffff16815260200190815260200160002060009054906101000a900460ff1680611de757506000600660008361ffff1661ffff16815260200190815260200160002060010160003373ffffffffffffffffffffffffffffffffffffffff1673ffffffffffffffffffffffffffffffffffffffff16815260200190815260200160002054145b15611df757829350505050611eb6565b6000600760008760ff1660ff1681526020019081526020016000206000015490506000600660008461ffff1661ffff1681526020019081526020016000206000015490506000818381611e4657fe5b049050600081600660008761ffff1661ffff16815260200190815260200160002060010160003373ffffffffffffffffffffffffffffffffffffffff1673ffffffffffffffffffffffffffffffffffffffff16815260200190815260200160002054029050809750505050505050505b919050565b606060006060611eca84611311565b90506000611ed7856118b6565b90508181935093505050915091565b60025481565b60008160ff1660088460ff1661ffff16901b17905092915050565b611f0f612339565b73__Witnet________________________________63e99e47f36000809054906101000a900473ffffffffffffffffffffffffffffffffffffffff1673ffffffffffffffffffffffffffffffffffffffff166345b3d782856040518263ffffffff1660e01b8152600401611f839190613557565b60006040518083038186803b158015611f9b57600080fd5b505afa158015611faf573d6000803e3d6000fd5b505050506040513d6000823e3d601f19601f82011682018060405250611fd891908101906129dc565b6040518263ffffffff1660e01b8152600401611ff491906133a6565b60006040518083038186803b15801561200c57600080fd5b505af4158015612020573d6000803e3d6000fd5b505050506040513d6000823e3d601f19601f820116820180604052506120499190810190612aeb565b9050919050565b60608082516040519080825280602002602001820160405280156120835781602001602082028038833980820191505090505b509050606083516040519080825280602002602001820160405280156120b85781602001602082028038833980820191505090505b50905060008090505b84518160ff16101561219657600080905060008090505b8260ff168160ff16101561216357868360ff16815181106120f557fe5b6020026020010151600f0b878260ff168151811061210f57fe5b6020026020010151600f0b131561212d578180600101925050612156565b848160ff168151811061213c57fe5b60200260200101805180919060010160ff1660ff16815250505b80806001019150506120d8565b5080848360ff168151811061217457fe5b602002602001019060ff16908160ff16815250505080806001019150506120c1565b5060008090505b82518160ff1610156121f0578082848360ff16815181106121ba57fe5b602002602001015160ff16815181106121cf57fe5b602002602001019060ff16908160ff1681525050808060010191505061219d565b508092505050919050565b60008060009054906101000a900473ffffffffffffffffffffffffffffffffffffffff1673ffffffffffffffffffffffffffffffffffffffff1663ec32e3db8385018673ffffffffffffffffffffffffffffffffffffffff1663f09400026040518163ffffffff1660e01b815260040160006040518083038186803b15801561228357600080fd5b505afa158015612297573d6000803e3d6000fd5b505050506040513d6000823e3d601f19601f820116820180604052506122c0919081019061299b565b856040518463ffffffff1660e01b81526004016122de9291906133c8565b6020604051808303818588803b1580156122f757600080fd5b505af115801561230b573d6000803e3d6000fd5b50505050506040513d601f19601f820116820180604052506123309190810190612b2c565b90509392505050565b60405180610100016040528060001515815260200161235661250b565b81525090565b828054828255906000526020600020906001016002900481019282156124225791602002820160005b838211156123e457835183826101000a8154816fffffffffffffffffffffffffffffffff0219169083600f0b6fffffffffffffffffffffffffffffffff1602179055509260200192601001602081600f01049283019260010302612385565b80156124205782816101000a8154906fffffffffffffffffffffffffffffffff0219169055601001602081600f010492830192600103026123e4565b505b50905061242f9190612564565b5090565b82805482825590600052602060002090601f016020900481019282156124c95791602002820160005b8382111561249a57835183826101000a81548160ff021916908360ff160217905550926020019260010160208160000104928301926001030261245c565b80156124c75782816101000a81549060ff021916905560010160208160000104928301926001030261249a565b505b5090506124d691906125a3565b5090565b6040518060a00160405280600081526020016060815260200160608152602001600081526020016000151581525090565b6040518060e0016040528061251e6125d3565b8152602001600060ff168152602001600060ff168152602001600060ff168152602001600067ffffffffffffffff168152602001600067ffffffffffffffff1681525090565b6125a091905b8082111561259c57600081816101000a8154906fffffffffffffffffffffffffffffffff02191690555060010161256a565b5090565b90565b6125d091905b808211156125cc57600081816101000a81549060ff0219169055506001016125a9565b5090565b90565b604051806040016040528060608152602001600067ffffffffffffffff1681525090565b6000815190506126068161394f565b92915050565b600082601f83011261261d57600080fd5b815161263061262b8261367b565b61364e565b9150818183526020840193506020810190508385602084028201111561265557600080fd5b60005b83811015612685578161266b888261274c565b845260208401935060208301925050600181019050612658565b5050505092915050565b60008151905061269e81613966565b92915050565b600082601f8301126126b557600080fd5b81516126c86126c3826136a3565b61364e565b915080825260208301602083018583830111156126e457600080fd5b6126ef8382846138fe565b50505092915050565b600082601f83011261270957600080fd5b815161271c612717826136cf565b61364e565b9150808252602083016020830185838301111561273857600080fd5b6127438382846138fe565b50505092915050565b60008151905061275b8161397d565b92915050565b60006040828403121561277357600080fd5b61277d604061364e565b9050600082015167ffffffffffffffff81111561279957600080fd5b6127a5848285016126a4565b60008301525060206127b9848285016128f2565b60208301525092915050565b6000604082840312156127d757600080fd5b6127e1604061364e565b905060006127f18482850161268f565b600083015250602082015167ffffffffffffffff81111561281157600080fd5b61281d84828501612829565b60208301525092915050565b600060c0828403121561283b57600080fd5b61284560c061364e565b9050600082015167ffffffffffffffff81111561286157600080fd5b61286d84828501612761565b60008301525060206128818482850161291c565b60208301525060406128958482850161291c565b60408301525060606128a98482850161291c565b60608301525060806128bd848285016128f2565b60808301525060a06128d1848285016128f2565b60a08301525092915050565b6000815190506128ec81613994565b92915050565b600081519050612901816139ab565b92915050565b600081359050612916816139c2565b92915050565b60008151905061292b816139c2565b92915050565b60006020828403121561294357600080fd5b600082015167ffffffffffffffff81111561295d57600080fd5b6129698482850161260c565b91505092915050565b60006020828403121561298457600080fd5b60006129928482850161268f565b91505092915050565b6000602082840312156129ad57600080fd5b600082015167ffffffffffffffff8111156129c757600080fd5b6129d3848285016126a4565b91505092915050565b6000602082840312156129ee57600080fd5b600082015167ffffffffffffffff811115612a0857600080fd5b612a14848285016126f8565b91505092915050565b600080600080600080600060e0888a031215612a3857600080fd5b600088015167ffffffffffffffff811115612a5257600080fd5b612a5e8a828b016126a4565b9750506020612a6f8a828b016128dd565b9650506040612a808a828b016128dd565b955050606088015167ffffffffffffffff811115612a9d57600080fd5b612aa98a828b016126a4565b9450506080612aba8a828b016128dd565b93505060a0612acb8a828b016128dd565b92505060c0612adc8a828b016125f7565b91505092959891949750929550565b600060208284031215612afd57600080fd5b600082015167ffffffffffffffff811115612b1757600080fd5b612b23848285016127c5565b91505092915050565b600060208284031215612b3e57600080fd5b6000612b4c848285016128dd565b91505092915050565b600060208284031215612b6757600080fd5b6000612b7584828501612907565b91505092915050565b60008060408385031215612b9157600080fd5b6000612b9f85828601612907565b9250506020612bb085828601612907565b9150509250929050565b6000612bc68383612e70565b60208301905092915050565b6000612bde83836132bd565b60208301905092915050565b6000612bf683836132ea565b60208301905092915050565b612c0b816138b6565b82525050565b6000612c1c8261372f565b612c2681856137a5565b9350612c31836136fb565b8060005b83811015612c62578151612c498882612bba565b9750612c5483613771565b925050600181019050612c35565b5085935050505092915050565b6000612c7a8261373a565b612c8481856137b6565b9350612c8f83613708565b8060005b83811015612cc0578151612ca78882612bd2565b9750612cb28361377e565b925050600181019050612c93565b5085935050505092915050565b6000612cd882613750565b612ce281856137d8565b9350612ced83613722565b8060005b83811015612d1e578151612d058882612bea565b9750612d1083613798565b925050600181019050612cf1565b5085935050505092915050565b6000612d3682613745565b612d4081856137c7565b9350612d4b83613715565b8060005b83811015612d7c578151612d638882612bea565b9750612d6e8361378b565b925050600181019050612d4f565b5085935050505092915050565b612d928161383f565b82525050565b612da18161383f565b82525050565b612db08161383f565b82525050565b6000612dc182613766565b612dcb81856137fa565b9350612ddb8185602086016138fe565b612de481613931565b840191505092915050565b6000612dfa8261375b565b612e0481856137e9565b9350612e148185602086016138fe565b612e1d81613931565b840191505092915050565b6000612e338261375b565b612e3d818561380b565b9350612e4d8185602086016138fe565b612e5681613931565b840191505092915050565b612e6a816138c8565b82525050565b612e798161385e565b82525050565b6000612e8c60258361381c565b91507f5769746e6574204461746120726571756573742072657475726e656420616e2060008301527f6572726f720000000000000000000000000000000000000000000000000000006020830152604082019050919050565b6000612ef2601a8361381c565b91507f53686f756c6420626520696e205245534f4c56452073746174650000000000006000830152602082019050919050565b6000612f3260268361381c565b91507f53686f756c6420696e7365727420612076616c696420746f6b656e206964656e60008301527f74696669657200000000000000000000000000000000000000000000000000006020830152604082019050919050565b6000612f9860148361381c565b91507f4164647265737320616c726561647920706169640000000000000000000000006000830152602082019050919050565b6000612fd8601f8361381c565b91507f53686f756c6420696e73657274206120706f73697469766520616d6f756e74006000830152602082019050919050565b600061301860288361381c565b91507f4164647265737320686173206e6f206265747320696e207468652077696e6e6960008301527f6e6720746f6b656e0000000000000000000000000000000000000000000000006020830152604082019050919050565b600061307e60288361381c565b91507f53686f756c6420626520696e20574149545f524553554c54206f72205041594f60008301527f55542073746174650000000000000000000000000000000000000000000000006020830152604082019050919050565b60006130e4602c8361381c565b91507f4e6f7420656e6f7567682076616c756520746f207265736f6c7665207468652060008301527f64617461207265717565737400000000000000000000000000000000000000006020830152604082019050919050565b6000604083016000830151848203600086015261315a8282612e28565b915050602083015161316f60208601826132db565b508091505092915050565b600060a08301600083015161319260008601826132bd565b50602083015184820360208601526131aa8282612d2b565b915050604083015184820360408601526131c48282612c11565b91505060608301516131d960608601826132bd565b5060808301516131ec6080860182612d89565b508091505092915050565b600060408301600083015161320f6000860182612da7565b50602083015184820360208601526132278282613234565b9150508091505092915050565b600060c0830160008301518482036000860152613251828261313d565b91505060208301516132666020860182613308565b5060408301516132796040860182613308565b50606083015161328c6060860182613308565b50608083015161329f60808601826132db565b5060a08301516132b260a08601826132db565b508091505092915050565b6132c68161388b565b82525050565b6132d58161388b565b82525050565b6132e481613895565b82525050565b6132f3816138a9565b82525050565b613302816138a9565b82525050565b613311816138a9565b82525050565b600060208201905081810360008301526133318184612c6f565b905092915050565b600060408201905081810360008301526133538185612c6f565b905061336260208301846132cc565b9392505050565b600060208201905081810360008301526133838184612ccd565b905092915050565b60006020820190506133a06000830184612d98565b92915050565b600060208201905081810360008301526133c08184612db6565b905092915050565b600060408201905081810360008301526133e28185612def565b90506133f160208301846132cc565b9392505050565b600060208201905061340d6000830184612e61565b92915050565b6000602082019050818103600083015261342c81612e7f565b9050919050565b6000602082019050818103600083015261344c81612ee5565b9050919050565b6000602082019050818103600083015261346c81612f25565b9050919050565b6000602082019050818103600083015261348c81612f8b565b9050919050565b600060208201905081810360008301526134ac81612fcb565b9050919050565b600060208201905081810360008301526134cc8161300b565b9050919050565b600060208201905081810360008301526134ec81613071565b9050919050565b6000602082019050818103600083015261350c816130d7565b9050919050565b6000602082019050818103600083015261352d818461317a565b905092915050565b6000602082019050818103600083015261354f81846131f7565b905092915050565b600060208201905061356c60008301846132cc565b92915050565b600060208201905061358760008301846132f9565b92915050565b60006060820190506135a260008301866132f9565b6135af60208301856132cc565b6135bc6040830184612c02565b949350505050565b60006080820190506135d960008301876132f9565b6135e660208301866132cc565b6135f36040830185612d98565b6136006060830184612c02565b95945050505050565b600060808201905061361e60008301876132f9565b61362b60208301866132f9565b6136386040830185612c02565b61364560608301846132cc565b95945050505050565b6000604051905081810181811067ffffffffffffffff8211171561367157600080fd5b8060405250919050565b600067ffffffffffffffff82111561369257600080fd5b602082029050602081019050919050565b600067ffffffffffffffff8211156136ba57600080fd5b601f19601f8301169050602081019050919050565b600067ffffffffffffffff8211156136e657600080fd5b601f19601f8301169050602081019050919050565b6000602082019050919050565b6000602082019050919050565b6000602082019050919050565b6000602082019050919050565b600081519050919050565b600081519050919050565b600081519050919050565b600081519050919050565b600081519050919050565b600081519050919050565b6000602082019050919050565b6000602082019050919050565b6000602082019050919050565b6000602082019050919050565b600082825260208201905092915050565b600082825260208201905092915050565b600082825260208201905092915050565b600082825260208201905092915050565b600082825260208201905092915050565b600082825260208201905092915050565b600082825260208201905092915050565b600082825260208201905092915050565b60006138388261386b565b9050919050565b60008115159050919050565b600081905061385982613942565b919050565b600081600f0b9050919050565b600073ffffffffffffffffffffffffffffffffffffffff82169050919050565b6000819050919050565b600067ffffffffffffffff82169050919050565b600060ff82169050919050565b60006138c1826138da565b9050919050565b60006138d38261384b565b9050919050565b60006138e5826138ec565b9050919050565b60006138f78261386b565b9050919050565b60005b8381101561391c578082015181840152602081019050613901565b8381111561392b576000848401525b50505050565b6000601f19601f8301169050919050565b6006811061394c57fe5b50565b6139588161382d565b811461396357600080fd5b50565b61396f8161383f565b811461397a57600080fd5b50565b6139868161385e565b811461399157600080fd5b50565b61399d8161388b565b81146139a857600080fd5b50565b6139b481613895565b81146139bf57600080fd5b50565b6139cb816138a9565b81146139d657600080fd5b5056fea265627a7a72305820d37ed3702295a351ff13ebd694a2921bc21d13bf4661caa989c173b6578649f06c6578706572696d656e74616cf50037608060405234801561001057600080fd5b50604051806103a001604052806103778152602001610351610377913980600090805190602001906100439291906100f1565b506002816040518082805190602001908083835b6020831061007a5780518252602082019150602081019050602083039250610057565b6001836020036101000a038019825116818451168082178552505050505050905001915050602060405180830381855afa1580156100bc573d6000803e3d6000fd5b5050506040513d60208110156100d157600080fd5b810190808051906020019092919050505060001c60018190555050610196565b828054600181600116156101000203166002900490600052602060002090601f016020900481019282601f1061013257805160ff1916838001178555610160565b82800160010185558215610160579182015b8281111561015f578251825591602001919060010190610144565b5b50905061016d9190610171565b5090565b61019391905b8082111561018f576000816000905550600101610177565b5090565b90565b6101ac806101a56000396000f3fe608060405234801561001057600080fd5b50600436106100365760003560e01c8063af640d0f1461003b578063f094000214610059575b600080fd5b6100436100dc565b6040518082815260200191505060405180910390f35b6100616100e2565b6040518080602001828103825283818151815260200191508051906020019080838360005b838110156100a1578082015181840152602081019050610086565b50505050905090810190601f1680156100ce5780820380516001836020036101000a031916815260200191505b509250505060405180910390f35b60015481565b60008054600181600116156101000203166002900480601f0160208091040260200160405190810160405280929190818152602001828054600181600116156101000203166002900480156101785780601f1061014d57610100808354040283529160200191610178565b820191906000526020600020905b81548152906001019060200180831161015b57829003601f168201915b50505050508156fea165627a7a723058204110c401d11a6ba2de0dde625b882f29dfaef0d4ab9f3a9cfb6a0d8544168e7000290ae70608a9d1ddec0512ae01122568747470733a2f2f6170692e636f696e6c6f72652e636f6d2f6170692f7469636b6572732f1a8401871845187482186164646174611870821853838218616673796d626f6c1875831844aa64414c474ff563425443f563454f53f563455443f563455448f5644c494e4bf5634d4b52f563524550f56358545af5635a4543f5f4821859828218616673796d626f6c1875821856828218617270657263656e745f6368616e67655f323468187212a801122068747470733a2f2f6170692e636f696e6361702e696f2f76322f6173736574731a8301871845187482186164646174611870821853838218616673796d626f6c1875831844aa64414c474ff563425443f563454f53f563455443f563455448f5644c494e4bf5634d4b52f563524550f56358545af5635a4543f5f4821859828218616673796d626f6c187582185682821861716368616e676550657263656e7432344872187212ba01122668747470733a2f2f6170692e636f696e70617072696b612e636f6d2f76312f7469636b6572731a8f018518451870821853838218616673796d626f6c1875831844aa64414c474ff563425443f563454f53f563455443f563455448f5644c494e4bf5634d4b52f563524550f56358545af5635a4543f5f4821859828218616673796d626f6c1875821856868218616671756f74657318748218616355534418748218617270657263656e745f6368616e67655f323468187212e901124d68747470733a2f2f62696c6c626f6172642e736572766963652e63727970746f7761742e63682f6173736574733f71756f74653d757364266c696d69743d33303026736f72743d766f6c756d651a9701891845187482186166726573756c74187482186164726f77731870821853838218616673796d626f6c1875831844aa64616c676ff563627463f563656f73f563657463f563657468f5646c696e6bf5636d6b72f563726570f56378747af5637a6563f5f4821859828218616673796d626f6c1875821856858218616b706572666f726d616e6365187482186163323468187282183818641a280a2684821853821851821824098218538218518218250b83185305fb4000cccccccccccd8218570322300a2e85821853821851821824098218538218518218250b83185305fa3fc000008218570382185682821838192710183c10eb0718022002280130013801",
  "source": "pragma solidity ^0.5.0;\npragma experimental ABIEncoderV2;\n\nimport \"witnet-ethereum-bridge/contracts/UsingWitnet.sol\";\nimport \"./requests/TokenGradient.sol\";\n\n\n/**\n * @title Token Price Contest\n * @notice Contract for creating a contest in which one can bet on token prices\n * @author Stampery Labs\n */\ncontract TokenPriceContest is UsingWitnet {\n\n  // Event emitted when a bet is placed by a contest participant\n  event BetPlaced(uint8 day, uint8 tokenId, address sender, uint256 value);\n\n  // Event emitted when a contest resolve is triggered (i.e. Data Request is sent out)\n  event ResolveTriggered(uint8 day, uint256 requestId, address sender);\n\n  // Event is emitted when a contest result is read (i.e. Data Request is resolved and its result read)\n  event ResultRead(uint8 day, uint256 requestId, bool result, address sender);\n\n  // Timestamp (as seconds since unix epoch) from which the constest starts counting (to enable certain operations)\n  uint256 public firstDay;\n\n  // Fees to include for the data request\n  uint256 public requestFee;\n\n  // Fees to include for the report result\n  uint256 public resultFee;\n\n  // Time period for each contest\n  uint256 public contestPeriod;\n\n  // Number of tokens in the contest\n  uint8 public tokenLimit;\n\n  // Witnet Data Request for tokens\n  Request tokenGradientRequest;\n\n  // States define the action allowed in the current contest window\n  enum DayState{BET, WAIT, RESOLVE, WAIT_RESULT, PAYOUT, INVALID}\n\n  // Structure with token participations in a contest period (e.g. day)\n  struct TokenDay {\n    uint256 totalAmount;\n    mapping (address => uint256) participations;\n    mapping (address => bool) paid;\n  }\n\n  // Mapping of token participations\n  // Key: `uint16` contains two uint8 refering to day||TokenId\n  mapping (uint16 => TokenDay) bets;\n\n  // Structure with all the current bets information in a contest period (e.g. day)\n  struct DayInfo {\n    // total prize for a day\n    uint256 grandPrize;\n    // ordered ranking after result has been resolved\n    uint8[] ranking;\n    // result as given by the data request (floats multiplied by 10000)\n    int128[] result;\n    // id of the data request inserted in the WBI\n    uint256 witnetRequestId;\n    // result was read from WBI\n    bool witnetReadResult;\n  }\n\n  // Mapping of day infos\n  mapping(uint8 => DayInfo) dayInfos;\n\n  /// @dev Creates a Token Prize Contest\n  /// @param _firstDay timestamp of contest start time\n  /// @param _contestPeriod time period (in seconds) of each contest window (e.g. a day)\n  /// @param _tokenLimit Number of tokens in the contest\n  /// @param _wbi address of Witnet Bridge Interface\n  /// @param _requestFee fee for data request forward\n  /// @param _resultFee fee for data request result\n  constructor(\n    uint256 _firstDay,\n    uint256 _contestPeriod,\n    uint8 _tokenLimit,\n    address _wbi,\n    uint256 _requestFee,\n    uint256 _resultFee) UsingWitnet(_wbi) public\n  {\n    firstDay = _firstDay;\n    contestPeriod = _contestPeriod;\n    tokenLimit = _tokenLimit;\n    requestFee = _requestFee;\n    resultFee = _resultFee;\n    tokenGradientRequest = new TokenGradientRequest();\n  }\n\n  /// @dev Gets the timestamp of the current block as seconds since unix epoch\n  /// @return timestamp\n  function getTimestamp() public view returns (uint256) {\n    return block.timestamp;\n  }\n\n  /// @dev Places a bet on a token identifier\n  /// @param _tokenId token identifier\n  function placeBet(uint8 _tokenId) public payable {\n    require(msg.value > 0, \"Should insert a positive amount\");\n    require(_tokenId < tokenLimit, \"Should insert a valid token identifier\");\n\n    // Calculate the day of the current bet\n    uint8 betDay = getCurrentDay();\n    // Create Bet: u8Concat\n    uint16 betId = u8Concat(betDay, _tokenId);\n\n    // Upsert Bets mapping (day||tokenId) with TokenDay\n    bets[betId].totalAmount = bets[betId].totalAmount + msg.value;\n    bets[betId].participations[msg.sender] += msg.value;\n    bets[betId].paid[msg.sender] = false;\n\n    // Upsert DayInfo (day)\n    dayInfos[betDay].grandPrize = dayInfos[betDay].grandPrize + msg.value;\n\n    emit BetPlaced(betDay, _tokenId, msg.sender, msg.value);\n  }\n\n  /// @dev Resolves a contest day if it is in RESOLVE state\n  /// @param _day contest day to be resolved\n  function resolve(uint8 _day) public payable {\n    // Check if BET is allowed\n    require(msg.value >= requestFee + resultFee, \"Not enough value to resolve the data request\");\n    require(getDayState(_day) == DayState.RESOLVE, \"Should be in RESOLVE state\");\n\n    // Post Witnet data request\n    uint256 requestId = witnetPostRequest(tokenGradientRequest, requestFee, resultFee);\n    dayInfos[_day].witnetRequestId = requestId;\n\n    emit ResolveTriggered(_day, requestId, msg.sender);\n  }\n\n  /// @dev Gets ranking from Witnet Bridge Interface in case that results are still not written into the contract\n  /// @param _day contest day of the payout\n  function getRankingFromWitnet(uint8 _day) public view returns(uint8[] memory) {\n    uint8[] memory ranking = new uint8[](tokenLimit);\n    // Result has not been read yet (first time)\n    if (dayInfos[_day].witnetReadResult) {\n      return dayInfos[_day].ranking;\n    } else if (isResultReady(_day)) {\n      Witnet.Result memory result = witnetReadResult(dayInfos[_day].witnetRequestId);\n      require(result.isOk(), \"Witnet Data request returned an error\");\n      int128[] memory requestResult = result.asInt128Array();\n      ranking = rank(requestResult);\n    }\n\n    return ranking;\n  }\n\n  /// @dev Pays out upon data request resolution (i.e. state should be `WAIT_RESULT` or `PAYOUT`)\n  /// @param _day contest day of the payout\n  function payout(uint8 _day) public payable {\n    require(\n      (getDayState(_day) == DayState.WAIT_RESULT) || (getDayState(_day) == DayState.PAYOUT),\n      \"Should be in WAIT_RESULT or PAYOUT state\"\n    );\n\n    // Result has not been read yet (first time)\n    if (dayInfos[_day].witnetReadResult == false) {\n      Witnet.Result memory result = witnetReadResult(dayInfos[_day].witnetRequestId);\n      dayInfos[_day].witnetReadResult = true;\n      emit ResultRead(_day, dayInfos[_day].witnetRequestId, result.isOk(), msg.sender);\n      if (result.isOk()) {\n        int128[] memory requestResult = result.asInt128Array();\n        uint8[] memory ranked = rank(requestResult);\n        dayInfos[_day].result = requestResult;\n        dayInfos[_day].ranking = ranked;\n      }\n    }\n\n    // Result was read but with an error (payout participations)\n    if (dayInfos[_day].result.length == 0) {\n      uint16 offset = u8Concat(_day, 0);\n      for (uint16 i = 0; i<tokenLimit; i++) {\n        if (bets[i+offset].paid[msg.sender] == false &&\n          bets[i+offset].participations[msg.sender] > 0) {\n          bets[i+offset].paid[msg.sender] = true;\n          msg.sender.transfer(bets[i+offset].participations[msg.sender]);\n        }\n      }\n    } else { // Result is Ok (payout to winners)\n      // Check legit payout\n      uint16 dayTokenId = u8Concat(_day, dayInfos[_day].ranking[0]);\n      require(bets[dayTokenId].paid[msg.sender] == false, \"Address already paid\");\n      require(bets[dayTokenId].participations[msg.sender] > 0, \"Address has no bets in the winning token\");\n      // Prize calculation\n      uint256 grandPrize = dayInfos[_day].grandPrize;\n      uint256 winnerAmount = bets[dayTokenId].totalAmount;\n      uint256 prizeShare = grandPrize / winnerAmount;\n      uint256 prize = bets[dayTokenId].participations[msg.sender] * prizeShare;\n      // Set paid flag and Transfer\n      bets[dayTokenId].paid[msg.sender] = true;\n      msg.sender.transfer(prize);\n    }\n  }\n\n  /// @dev Gets a contest day state\n  /// @param _day contest day\n  /// @return day state\n  function getDayState(uint8 _day) public returns (DayState) {\n    uint8 currentDay = getCurrentDay();\n    if (_day == currentDay) {\n      return DayState.BET;\n    } else if (_day > currentDay) {\n      // Bet in the future\n      return DayState.INVALID;\n    } else if (dayInfos[_day].grandPrize == 0) {\n      // BetDay is in the past but there were no bets\n      return DayState.PAYOUT;\n    } else if (_day == currentDay - 1) {\n      // Waiting day\n      return DayState.WAIT;\n    } else if (dayInfos[_day].witnetRequestId == 0) {\n      // BetDay is in the past with bets but no DR yet\n      return DayState.RESOLVE;\n    } else if (!dayInfos[_day].witnetReadResult) {\n      // BetDay is in the past with bets and DR but no result yet\n      return DayState.WAIT_RESULT;\n    }  else {\n      // BetDay is in the past with bets, DR and the results\n      return DayState.PAYOUT;\n    }\n  }\n\n  /// @dev Checks if the day contest result is ready to be read\n  /// @param _day contest day\n  /// @return true, if result is ready\n  function isResultReady(uint8 _day) public view returns(bool) {\n    (,,,bytes memory result,,,) = wbi.requests(dayInfos[_day].witnetRequestId);\n    return result.length > 0;\n  }\n\n  /// @dev Reads the total amount bet for a day and a token identifier\n  /// @param _day contest day\n  /// @param _tokenId token identifier\n  /// @return total amount of bets\n  function getTotalAmountTokenDay(uint8 _day, uint8 _tokenId) public view returns (uint256) {\n    return bets[u8Concat(_day, _tokenId)].totalAmount;\n  }\n\n  /// @dev Reads the participations of the sender for a given day\n  /// @param _day contest day\n  /// @return array with the participations for each token\n  function getMyBetsDay(uint8 _day) public view returns (uint256[] memory) {\n    uint256[] memory results = new uint256[](tokenLimit);\n    uint16 offset = u8Concat(_day, 0);\n    for (uint16 i = 0; i<tokenLimit; i++) {\n      results[i] = bets[i+offset].participations[msg.sender];\n    }\n\n    return results;\n  }\n\n  /// @dev Reads the participations and wins of the sender for a given day\n  /// @param _day contest day\n  /// @return array with the participations for each token\n  function getMyBetsDayWins(uint8 _day) public view returns (uint256[] memory, uint256) {\n    uint256[] memory results = getMyBetsDay(_day);\n    uint256 amount = getMyDayWins(_day);\n\n    return (results, amount);\n  }\n\n  function getMyDayWins(uint8 _day) public view returns (uint256) {\n    uint256 amount;\n    // Data request is not yet resolved or is still beeing resolved within Witnet\n    if (dayInfos[_day].witnetRequestId == 0 || !isResultReady(_day)) {\n      return amount;\n    }\n\n    // Data request is already in WBI or in the contract\n    uint8[] memory ranking = new uint8[](tokenLimit);\n\n    // Calculate Ranking\n    if (dayInfos[_day].witnetReadResult) {\n      ranking = dayInfos[_day].ranking;\n    } else { // Data request is in WBI but not in contract -> read from WBI\n      Witnet.Result memory result = witnetReadResult(dayInfos[_day].witnetRequestId);\n      if (result.isOk()) {\n        // Data Request is OK -> compute...\n        ranking = rank(result.asInt128Array());\n      }\n    }\n\n    // Empty ranking -> return back participations\n    if (ranking.length == 0) {\n      // Data request with ERROR -> return money to all participants\n      uint16 offset = u8Concat(_day, 0);\n      for (uint16 i = 0; i<tokenLimit; i++) {\n        if (bets[i+offset].paid[msg.sender] == false &&\n          bets[i+offset].participations[msg.sender] > 0) {\n          // bets[i+offset].paid[msg.sender] = true;\n          amount += bets[i+offset].participations[msg.sender];\n        }\n      }\n      return amount;\n    }\n\n    // Ranking available -> compute prize for participant\n    uint16 dayTokenId = u8Concat(_day, ranking[0]);\n    // Already paid or not participated\n    if (bets[dayTokenId].paid[msg.sender] || bets[dayTokenId].participations[msg.sender] == 0) {\n      return amount;\n    }\n    // Prize calculation\n    uint256 grandPrize = dayInfos[_day].grandPrize;\n    uint256 winnerAmount = bets[dayTokenId].totalAmount;\n    uint256 prize_share = grandPrize / winnerAmount;\n    uint256 prize = bets[dayTokenId].participations[msg.sender] * prize_share;\n\n    return prize;\n  }\n\n  /// @dev Reads day information\n  /// @param _day contest day\n  /// @return day info structure\n  function getDayInfo(uint8 _day) public view returns (DayInfo memory) {\n    return dayInfos[_day];\n  }\n\n  /// @dev Read last block timestamp and calculate difference with firstDay timestamp\n  /// @return index of current day\n  function getCurrentDay() public returns (uint8) {\n    uint256 timestamp = getTimestamp();\n    uint256 daysDiff = (timestamp - firstDay) / contestPeriod;\n\n    return uint8(daysDiff);\n  }\n\n  /// @dev Concatenates two `uint8`\n  /// @param _l left component\n  /// @param _r right component\n  /// @return _l||_r\n  function u8Concat(uint8 _l, uint8 _r) internal pure returns (uint16) {\n    return (uint16(_l) << 8) | _r;\n  }\n\n  /// @dev Ranks a given input array\n  /// @param input array to be ordered\n  /// @return ordered array\n  function rank(int128[] memory input) internal pure returns (uint8[] memory) {\n    // Ranks the given input array\n    uint8[] memory ranked = new uint8[](input.length);\n    uint8[] memory result = new uint8[](input.length);\n\n    for (uint8 i = 0; i < input.length; i++) {\n      uint8 curRank = 0;\n      for (uint8 j = 0; j < i; j++) {\n        if (input[j] > input[i]) {\n          curRank++;\n        } else {\n          ranked[j]++;\n        }\n      }\n      ranked[i] = curRank;\n    }\n\n    for (uint8 i = 0; i < ranked.length; i++) {\n      result[ranked[i]] = i;\n    }\n    return result;\n  }\n}\n",
  "sourcePath": "/home/cyric/git/stampery-labs/witnet-tokenprice-example-contracts/contracts/TokenPriceContest.sol",
  "compiler": {
    "name": "solc",
    "version": "0.5.8+commit.23d335f2.Emscripten.clang"
  },
  "schemaVersion": "3.0.16",
  "updatedAt": "2019-10-04T15:45:05.520Z",
  "devdoc": {
    "author": "Stampery Labs",
    "methods": {
      "constructor": {
        "details": "Creates a Token Prize Contest",
        "params": {
          "_contestPeriod": "time period (in seconds) of each contest window (e.g. a day)",
          "_firstDay": "timestamp of contest start time",
          "_requestFee": "fee for data request forward",
          "_resultFee": "fee for data request result",
          "_tokenLimit": "Number of tokens in the contest",
          "_wbi": "address of Witnet Bridge Interface"
        }
      },
      "getCurrentDay()": {
        "details": "Read last block timestamp and calculate difference with firstDay timestamp",
        "return": "index of current day"
      },
      "getDayInfo(uint8)": {
        "details": "Reads day information",
        "params": {
          "_day": "contest day"
        },
        "return": "day info structure"
      },
      "getDayState(uint8)": {
        "details": "Gets a contest day state",
        "params": {
          "_day": "contest day"
        },
        "return": "day state"
      },
      "getMyBetsDay(uint8)": {
        "details": "Reads the participations of the sender for a given day",
        "params": {
          "_day": "contest day"
        },
        "return": "array with the participations for each token"
      },
      "getMyBetsDayWins(uint8)": {
        "details": "Reads the participations and wins of the sender for a given day",
        "params": {
          "_day": "contest day"
        },
        "return": "array with the participations for each token"
      },
      "getRankingFromWitnet(uint8)": {
        "details": "Gets ranking from Witnet Bridge Interface in case that results are still not written into the contract",
        "params": {
          "_day": "contest day of the payout"
        }
      },
      "getTimestamp()": {
        "details": "Gets the timestamp of the current block as seconds since unix epoch",
        "return": "timestamp"
      },
      "getTotalAmountTokenDay(uint8,uint8)": {
        "details": "Reads the total amount bet for a day and a token identifier",
        "params": {
          "_day": "contest day",
          "_tokenId": "token identifier"
        },
        "return": "total amount of bets"
      },
      "isResultReady(uint8)": {
        "details": "Checks if the day contest result is ready to be read",
        "params": {
          "_day": "contest day"
        },
        "return": "true, if result is ready"
      },
      "payout(uint8)": {
        "details": "Pays out upon data request resolution (i.e. state should be `WAIT_RESULT` or `PAYOUT`)",
        "params": {
          "_day": "contest day of the payout"
        }
      },
      "placeBet(uint8)": {
        "details": "Places a bet on a token identifier",
        "params": {
          "_tokenId": "token identifier"
        }
      },
      "resolve(uint8)": {
        "details": "Resolves a contest day if it is in RESOLVE state",
        "params": {
          "_day": "contest day to be resolved"
        }
      }
    },
    "title": "Token Price Contest"
  },
  "userdoc": {
    "methods": {},
    "notice": "Contract for creating a contest in which one can bet on token prices"
  }
}